:020000040800F2
:10000000385600202D0300085937000877310008C2
:100010001537000887060008F941000800000000B5
:100020000000000000000000000000006D02000859
:10003000AB07000800000000C902000803380008F0
:100040004703000847030008470300084703000868
:100050004703000847030008470300084703000858
:100060004703000847030008470300084703000848
:10007000AD060008470300084703000847030008CF
:100080004703000847030008470300084703000828
:100090008D060008470300084703000847030008CF
:1000A0004703000847030008470300084703000808
:1000B00047030008470300084703000847030008F8
:1000C00047030008470300084703000847030008E8
:1000D00047030008C540000847030008D540000852
:1000E00047030008470300084703000847030008C8
:1000F00047030008470300084703000847030008B8
:1001000047030008470300084703000847030008A7
:100110004703000847030008470300084703000897
:10012000470300084703000847030008BD0600080E
:100130004703000847030008470300084703000877
:100140009D0600084703000847030008470300080E
:100150004703000847030008470300084703000857
:100160004703000847030008470300084703000847
:100170004703000847030008470300080000000089
:10018000470300084703000800F002F800F05EF89B
:100190000AA090E8000C82448344AAF10107DA45E2
:1001A00001D100F053F8AFF2090EBAE80F0013F0D6
:1001B000010F18BFFB1A43F001031847087C000029
:1001C000287C00000A444FF0000C10F8013B13F0AB
:1001D000070408BF10F8014B1D1108BF10F8015BA0
:1001E000641E05D010F8016B641E01F8016BF9D193
:1001F00013F0080F1EBF10F8014BAD1C0C1B09D1EA
:100200006D1E58BF01F801CBFAD505E014F8016B5B
:1002100001F8016B6D1EF9D59142D6D370470000ED
:100220000023002400250026103A28BF78C1FBD8FF
:10023000520728BF30C148BF0B6070471FB507F099
:100240002CFC00F081F91FBD10B510BD00F0E6F9DF
:100250001146FFF7F3FF05F041F800F004FA03B48C
:10026000FFF7F2FF03BC00F007FA00002C4B1968FF
:100270000868B0E8F04F80F30988BFF36F8F4FF044
:10028000000080F3118870470000000008480068F3
:10029000006880F308884FF0000080F3148862B68D
:1002A00061B6BFF34F8FBFF36F8F00DF00BF00BF9A
:1002B00008ED00E0DFF80C00016841F47001016016
:1002C000704700BF88ED00E0EFF30980BFF36F8F48
:1002D000134B1A681EF0100F08BF20ED108A20E99A
:1002E000F04F106009B44FF0500080F31188BFF355
:1002F0004F8FBFF36F8F06F085F94FF0000080F34A
:10030000118809BC19680868B0E8F04F1EF0100F9A
:1003100008BFB0EC108A80F30988BFF36F8F704775
:1003200024000020EFF30580704700000948804753
:1003300009480047FEE7FEE7FEE7FEE7FEE7FEE7C7
:10034000FEE7FEE7FEE7FEE704480549054A064BDF
:1003500070470000CD38000889010008385000209F
:1003600038560020385200203852002053EA020C40
:1003700000F069802DE9F04B4FF00006002B1FBF05
:10038000B3FA83F503FA05F424FA05F65E4012BFCA
:100390001643B2FA82F502FA05F4C5F120051EBF34
:1003A00022FA05FC44EA0C04203556EA044C4FEAD4
:1003B000144418BF641C4FF000084FF0000990422D
:1003C00071EB030C39D3002919BFB1FA81F701FA97
:1003D00007F6B0FA80F700FA07F6C7F120071EBF4C
:1003E00020FA07FC46EA0C062037B6FBF4FCA7EB24
:1003F0000507103F07F01F0BCBF120060CFA0BFB93
:100400002CFA06F644BFB3460026202FA4BF5E4652
:100410004FF0000B5BEA060C08BF4FF0010B19EB25
:100420000B09ABFB027C48EB0608C01B06FB02CCA9
:100430000BFB03CC71EB0C01C1E70B4602464146B6
:100440004846BDE8F08B13B54FF000004FF00001B7
:10045000AFF30080BDE81C407047032A40F23080B3
:1004600010F0030C00F0158011F8013BBCF1020FF5
:10047000624498BF11F801CB00F8013B38BF11F876
:10048000013BA2F1040298BF00F801CB38BF00F88D
:10049000013B11F0030300F06980083AC0F00880C6
:1004A00051F8043B083A51F804CBA0E80810F5E7EE
:1004B000121D5CBF51F8043B40F8043BAFF30080D1
:1004C000D20724BF11F8013B11F801CB48BF11F846
:1004D000012B24BF00F8013B00F801CB48BF00F816
:1004E000012B704702F0FF0343EA032242EA024273
:1004F00000F070B84FF0000200B5134694469646DF
:10050000203922BFA0E80C50A0E80C50B1F1200126
:10051000BFF4F7AF090728BFA0E80C5048BF0CC0D4
:100520005DF804EB890028BF40F8042B08BF704732
:1005300048BF20F8022B11F0804F18BF00F8012BA4
:10054000704770477047704770B5064C7C44064D45
:100550007D4403E0206820448047241DAC42F9D14B
:1005600070BD0000947800009878000010B5203A23
:10057000C0F00B80B1E81850203AA0E81850B1E85C
:100580001850A0E81850BFF4F5AF5FEA027C24BF12
:10059000B1E81850A0E8185044BF18C918C0BDE809
:1005A00010405FEA827C24BF51F8043B40F8043BD2
:1005B00008BF7047D20728BF31F8023B48BF11F887
:1005C000012B28BF20F8023B48BF00F8012B7047E1
:1005D0004FF000020429C0F0128010F0030C3FF429
:1005E0008BAFCCF1040CBCF1020F18BF00F8012B4B
:1005F000A8BF20F8022BA1EB0C01FFF77DBF5FEA3B
:10060000C17C24BF00F8012B00F8012B48BF00F883
:10061000012B704700487047D84F00207546FFF700
:10062000F9FFAE4605006946534620F007008546AF
:1006300018B020B5FFF788FEBDE820404FF0000657
:100640004FF000074FF000084FF0000B21F00701BA
:10065000AC46ACE8C009ACE8C009ACE8C009ACE8FD
:10066000C0098D46704710B50446AFF300802046A0
:10067000BDE81040FFF7F3BD01491820ABBEFEE70F
:1006800026000200704700BFFEE7000010B50248D8
:1006900000F0A0FA10BD00003401002010B502489F
:1006A00000F098FA10BD00005C01002010B502486F
:1006B00000F0EAFE10BD00004003002010B5024823
:1006C00000F0E2FE10BD0000140200200146087890
:1006D00010381823B0FBF3F20848805CC865032A81
:1006E00005D908686FF30900001D886503E00868F4
:1006F0006FF309008865886D70470000407B000833
:10070000014600208A6A8B69CBB932B1012A0DD02B
:10071000022A03D0032A10D10EE000BFCB6A03F0F7
:100720008073B3F1807F00D1012007E0CB6AB3F181
:10073000C07F00D1012001E000E000BF34E08B6900
:10074000B3F5005F1AD132B1012A07D0022A03D0D3
:10075000032A11D10AE000BF01200EE0CB6A03F0AA
:100760008073B3F1807F00D1012006E0CB6AB3F142
:10077000C07F00D1012000E000BF15E032B1012AA6
:1007800005D0022A04D0032A0CD103E000BF00BF29
:10079000012008E0CB6A03F08073B3F1807F00D1C1
:1007A000012000E000BF00BF7047704772B600BF75
:1007B000FEE710B5024692F82030012B01D0022B43
:1007C00006D110684069084314686061002010BDBC
:1007D000506A40F4802050620120F8E7F0B50446EA
:1007E0000D461E4694F8207020688368A86800B9FA
:1007F00000E000BF012F01D0022F7CD103F0806008
:1008000030B903F0006018B903F08050002873D0AD
:10081000C3F30161022905D9606A40F400006062F7
:100820000120F0BD012088403060A86860B9B5F8AB
:1008300000C0E86840EA4C5C206800F5C07000EB3E
:100840000110C0F800C00FE0D5E901C040EACC00BB
:10085000D5F80CC040EA0C00D4F800C00CF5C07C00
:100860000CEB011CCCF80000D5F810C0206800F596
:10087000C07000EB0110C0F804C0287D01280ED123
:10088000206800F5C07000EB0110406840F4807CE7
:10089000206800F5C07000EB0110C0F804C0D079EA
:1008A000000692F806C040EA0C4092F805C040EA03
:1008B0000C2C10794CEA000C206800F5C07000EB9D
:1008C0000110C0F80CC0D078000692F802C040EACF
:1008D0000C4092F801C040EA0C2092F800C040EAB7
:1008E0000C00D4F800C00CF5C07C0CEB011CCCF85B
:1008F0000800206801E016E00FE000F5C07000EB92
:100900000110006840F0010C206800F5C07000EB99
:100910000110C0F800C0002083E7606A40F40010B6
:10092000606201207DE7606A40F4802060620120FF
:1009300077E70000F0B504460A46216894F8205095
:10094000012D01D0022D7ED1424901F500710868C8
:1009500040F001000860086820F47C5008600868D6
:10096000566A40EA06200860107D00F01F0601204C
:1009700000FA06F3C8699843C861A1F50071D0690F
:10098000C8B9D1F80C029843C1F80C02908880B223
:10099000968940EA064601F51070576940F83760BD
:1009A000108880B2168940EA064601F51070576932
:1009B00000EBC7004660D069012819D1D1F80C02BC
:1009C0001843C1F80C02908880B2168840EA0646A7
:1009D00001F51070576940F83760908980B2168928
:1009E00040EA064601F51070576900EBC700466003
:1009F000906928B9D1F804029843C1F8040204E0D0
:100A0000D1F804021843C1F80402106928B9D1F8DA
:100A100014029843C1F8140204E0D1F814021843F8
:100A2000C1F81402106A012804D1D1F81C0218433D
:100A3000C1F81C02D1F8000220F00100C1F8000248
:100A40000020F0BDFFE7606A40F480206062012072
:100A5000F7E7000000640040704770B5044694F862
:100A60002050012D01D0022D7DD151B92068C068E0
:100A700000F0030080B9606A40F400106062012059
:100A800070BD2068006900F0030028B9606A40F476
:100A9000001060620120F3E7206800F5D87000EBD9
:100AA0000110006800F004009060906840B9206870
:100AB00000F5D87000EB01100068400D106007E0F1
:100AC000206800F5D87000EB01100068C008506085
:100AD000206800F5D87000EB0110006800F00200FB
:100AE000D060206800F5D87000EB0110406800F07D
:100AF0000F001061206800F5D87000EB011040680D
:100B000000F47F40000A9061206800F5D87000EB87
:100B100001104068000C5061206800F5D87000EBAF
:100B2000011080681870206800F5D87000EB011083
:100B3000806800F47F40000A5870206800F5D87083
:100B400000EB0110806800F47F00000C98702068B2
:100B500000F5D87000EB01108068000ED870206896
:100B600000F5D87000E02FE000EB0110C0681871AC
:100B7000206800F5D87000EB0110C06800F47F40D9
:100B8000000A5871206800F5D87000EB0110C068A9
:100B900000F47F00000C9871206800F5D87000EB1D
:100BA0000110C068000ED87131B92068C06840F0EB
:100BB00020002668F06005E02068006940F0200011
:100BC0002668306100205BE7606A40F48020606244
:100BD000012055E72DE9F05F0446002520684669AD
:100BE0002068D0F80490206887682068D0F80CA0AE
:100BF0002068D0F810B02068D0F8188006F0010006
:100C0000002855D007F00100C0B10120216888609C
:100C100007F0020018B1204600F0C5FB0EE007F017
:100C2000040010B145F4006508E007F0080010B1B9
:100C300045F4805502E0204600F0B4FB07F48070D4
:100C4000C8B14FF480702168886007F4007018B153
:100C5000204600F0AAFB0EE007F4806010B145F4D6
:100C6000005508E007F4006010B145F4804502E04B
:100C7000204600F099FB07F48030C8B14FF4803073
:100C80002168886007F4003018B1204600F08FFB1F
:100C90000EE007F4802010B145F4004508E007F4A9
:100CA000002010B145F4803502E0204600F07EFBC4
:100CB00006F0080038B10AF0100020B145F40075C4
:100CC00010202168C86006F0040040B10AF0080056
:100CD00028B108202168C860204600F00DFA06F00F
:100CE000020038B12068C06800F0030010B120464F
:100CF00000F004FA06F0400038B10BF0100020B10B
:100D000045F4806510202168086106F0200040B19C
:100D10000BF0080028B1082021680861204600F087
:100D20000FFB06F0100038B12068006900F00300E6
:100D300010B1204600F005FB06F4003040B109F088
:100D4000100028B1102021684860204600F0FAFA0F
:100D500006F4803040B109F0080028B1082021686D
:100D60004860204600F024FB06F4004088B309F0F8
:100D7000040078B306F4807020B108F0010008B1D7
:100D800045F0010506F4007020B108F0020008B13A
:100D900045F0020506F4806020B108F0040008B1B7
:100DA00045F0040506F40060A0B108F0700088B1B9
:100DB00008F07000402817D006DC10280BD020283F
:100DC0000CD0302819D10CE0502810D0602814D154
:100DD00010E01DE019E045F008050FE045F01005B2
:100DE0000CE045F0200509E045F0400506E045F03F
:100DF000800503E045F4807500E000BF00BF206877
:100E0000806920F0700021688861042021684860B2
:100E10002DB1606A284360622046FFF71DFEBDE8E1
:100E2000F09F70B504460CB9012070BD94F8200005
:100E300010B9204600F0B0F82068006840F00100CA
:100E40002168086000F0BEFD05460DE000F0BAFD27
:100E5000401B0A2808D9606A40F40030606205200F
:100E600084F820000120E0E72068406800F00100DD
:100E70000028EBD02068006820F00200216808609C
:100E800000F0A0FD05460DE000F09CFD401B0A2887
:100E900008D9606A40F400306062052084F82000C0
:100EA0000120C2E72068406800F002000028EBD172
:100EB000207E012806D12068006840F0800021686B
:100EC000086005E02068006820F080002168086064
:100ED000607E012806D12068006840F0400021684B
:100EE000086005E02068006820F040002168086084
:100EF000A07E012806D12068006840F0200021680B
:100F0000086005E02068006820F020002168086083
:100F1000E07E012806D12068006820F010002168DA
:100F2000086005E02068006840F010002168086053
:100F3000207F012806D12068006840F00800216861
:100F4000086005E02068006820F00800216808605B
:100F5000607F012806D12068006840F00400216805
:100F6000086005E02068006820F00400216808603F
:100F7000D4E90201084321690843616908436168B3
:100F8000491E08432168C86100206062012084F87E
:100F90002000002049E7000010B586B00446142167
:100FA00001A8FFF7A7FA4E492068884241D14D4871
:100FB0000068401C4B4908600846006801280FD1B2
:100FC00000BF002000904848006840F0007046498B
:100FD00008600846006800F00070009000BF00BF85
:100FE00000BF0020009040481038006840F0080022
:100FF0003D49103908600846006800F0080000907C
:1010000000BF00BF03200190022002900020039047
:10101000032004900920059001A9344800F0CAFB80
:1010200000220521142000F05DFD142000F04AFD8F
:1010300054E02F492068884250D100BF0020009022
:101040002948006840F08060274908600846006829
:1010500000F08060009000BF00BF22480068401C84
:10106000204908600846006801280FD100BF002011
:1010700000901D48006840F000701B490860084659
:10108000006800F00070009000BF00BF00BF0020AB
:10109000009015481038006840F0020012491039DD
:1010A00008600846006800F00200009000BF00BF22
:1010B0006020019002200290002003900320049001
:1010C0000920059001A90B4800F074FB00220521BE
:1010D000402000F007FD402000F0F4FC06B010BDF9
:1010E000006400401000002040380240000C024024
:1010F00000680040000402407047000010B58AB04C
:1011000004468649206888427ED101AB03AA0021AB
:101110008348FFF7A2FC002877D10398042806D063
:10112000052805D0062804D007286FD102E000BFAB
:1011300000BF00BF0398001F7A4908709DF80400A3
:1011400000F00F00097801EB4101774A02F8310005
:101150009DF8040000117349097801EB410102EB8D
:10116000C10148709DF806009DF8051040EA012075
:101170006C49097801EB410102EBC10148609DF81F
:10118000070000019DF8081040EA21106549097820
:1011900001EB410102EBC10188609DF809009DF857
:1011A000081001F00F0140EA01205E49097801EBC7
:1011B000410102EBC101C8609DF80A0000EE100A6F
:1011C000B8EE400A5748007800EB4000114601EBAA
:1011D000C00080ED040A9DF80B0000EE100AB8EE86
:1011E000400A5048007800EB400001EBC00080ED61
:1011F000050A4E494B4A127801EBC20191ED001AE3
:10120000F0EE410A494902E05CE05AE058E0454A04
:10121000127801EBC20191ED011AB0EE410A414989
:10122000097801EB4101404A02EBC10148681021F5
:1012300003F092FA3C4860303A49097800EB8100AB
:1012400080ED000A3A49374A127801EBC20191ED6C
:10125000001AF0EE410A3649324A127801EBC20117
:1012600091ED011AB0EE410A2E49097801EB4101D6
:101270002D4A02EBC10188680C2103F06DFA2A485F
:1012800070302849097800EB810080ED000A25497B
:10129000097801EB4101244A02EBC101C8680C2125
:1012A000F2EE040ABAEE040A03F056FA1D4800787A
:1012B00000EB40001C4901EBC00080ED030A00BFB9
:1012C00000BF00BF1B492068884225D101AB03AA9B
:1012D00000211948FFF7C1FBE8B90398CB2817D0C4
:1012E00004DCC92812D0CA2814D110E0CC2810D0B0
:1012F000B0F5937F0ED19DF80400104981F860008D
:101300009DF805100D4880F8611003E000BF00BF94
:1013100000BF00BF00BF00BF0AB010BD00680040A2
:101320005C0100201D010020784E0020607B000839
:10133000807B00080064004034010020104E002033
:1013400070477047704770B5044694F82000012834
:1013500022D1022084F820002068006820F00100DB
:101360002168086000F02EFB05460DE000F02AFB26
:10137000401B0A2808D9606A40F4003060620520EA
:1013800084F82000012070BD2068406800F0010052
:101390000028EBD16062F6E7606A40F400206062EA
:1013A0000120F0E7704770477047704770477047FB
:1013B000704770B50446A56D00F004FB064694F82E
:1013C0003500022808D08020606500BF002084F826
:1013D000340000BF012070BD2068006820F01600B6
:1013E000216808602068406920F080002168486119
:1013F000206C08B9A06C28B12068006820F00800B3
:10140000216808602068006820F0010021680860F9
:1014100010E000F0D7FA801B05280BD9202060656A
:10142000032084F8350000BF002084F8340000BF9A
:101430000320D0E72068006800F001000028E8D110
:1014400094F85C103F208840A860012084F83500A3
:1014500000BF002084F8340000BF00BFBBE7014696
:1014600091F83500022803D080204865012070479C
:10147000052081F835000868006820F001000A683E
:1014800010600020F3E70000F8B50446002000904B
:101490008C4800684FF41651B0FBF1F7A56D2E682B
:1014A00094F85C1008208840304098B120680068AB
:1014B00000F0040070B12068006820F0040021688A
:1014C000086094F85C1008208840A860606D40F0C7
:1014D0000100606594F85C1001208840304068B1DC
:1014E0002068406900F0800040B194F85C10012051
:1014F0008840A860606D40F00200606594F85C1060
:1015000004208840304068B12068006800F0020084
:1015100040B194F85C1004208840A860606D40F0F1
:101520000400606594F85C1010208840304078B367
:101530002068006800F0080050B394F85C10102098
:101540008840A8602068006800F4802080B120688E
:10155000006800F4002028B9206CC8B12046216C36
:10156000884715E0A06C98B12046A16C88470FE031
:101570002068006800F4807028B92068006820F0B6
:10158000080021680860206C10B12046216C884753
:1015900094F85C10202088403040002865D02068F6
:1015A000006800F0100000285FD094F85C10202044
:1015B0008840A86094F83500052828D12068006884
:1015C00020F01600216808602068406920F0800043
:1015D00021684861206C08B9A06C28B120680068B7
:1015E00020F008002168086094F85C103F208840D3
:1015F000A860012084F8350000BF002084F8340082
:1016000000BF206D10B12046216D8847F8BD2068CD
:10161000006800F4802080B12068006800F4002099
:1016200028B9606C10B12046616C88471DE0E06B02
:10163000D8B12046E16B884717E02068006800F4C5
:10164000807068B92068006820F010002168086088
:10165000012084F8350000BF002084F8340000BF6A
:10166000E06B10B12046E16B8847606D38B3606D68
:1016700000F00100F0B1052084F835002068006812
:1016800020F001002168086000BF0098401C009015
:10169000B84200D905E02068006800F00100002889
:1016A000F3D100BF012084F8350000BF002084F88A
:1016B000340000BFE06C10B12046E16C884700BFE9
:1016C000A4E70000200000202DE9F0410446002599
:1016D00000F078F9074614B90120BDE8F081606A8E
:1016E00000B100BF022084F8350000BF002084F85C
:1016F000340000BF2068006820F001002168086005
:101700000AE000F05FF9C01B052805D920206065BC
:10171000032084F83500E0E72068006800F001004D
:101720000028EED12068056821480540D4E9010170
:101730000843E16808432169084361690843A169D6
:101740000843E1690843216A08430543606A0428A5
:1017500003D1D4E90B0108430543206805602068E4
:10176000456925F00705606A0543606A04280DD1C4
:10177000A06A0543E06A48B12046FEF7C1FF28B1E0
:1017800040206065012084F83500A6E720684561A7
:101790002046FEF79BFF064694F85C103F208840E9
:1017A000B06000206065012084F83500002094E7D7
:1017B0003F8010F0F8B502460B46002500240020BB
:1017C0000021D6E0012606FA01F51E6806EA0504A6
:1017D000AC4274D11E7906F00306012E04D01E79A6
:1017E00006F00306022E13D190684F000326BE4078
:1017F000B0434F00DE68BE40304390605068012621
:101800008E40B0431E79C6F300168E4030435060C0
:101810001E7906F00306032E09D0D0684F00032678
:10182000BE40B0434F009E68BE403043D0601E793A
:1018300006F00306022E13D1CF0802F1200656F857
:1018400027004E07F70E0F26BE40B0434F07FF0E8E
:101850001E69BE403043CF0802F1200646F827003B
:1018600010684F000326BE40B0431E7906F0030601
:101870004F00BE40304310605E6806F44036002ED4
:1018800076D000BF002600963C4E366846F480466F
:101890003A4F3E603E46366806F48046009600BFEA
:1018A00000BF374E8F0856F827008E07370F0F26D8
:1018B000BE40B043334EB24202D1002624E057E08E
:1018C000314EB24201D101261EE0304EB24201D16A
:1018D000022619E02E4EB24201D1032614E02D4E0D
:1018E000B24201D104260FE02B4EB24201D10526AF
:1018F0000AE02A4EB24201D1062605E0284EB24245
:1019000001D1072600E008268F073F0FBE40304375
:101910001B4E8F0846F82700224E3068A0435E68B1
:1019200006F4801606B120431E4E3060361D306826
:10193000A0435E6806F4001606B12043194E361D1A
:101940003060184E361F3068A0435E6806F40036DB
:1019500006B12043134E361F3060361F3068A04357
:101960005E6806F4803606B120430E4E083E3060B5
:10197000491C1029FFF426AFF8BD0000443802408E
:101980000838014000000240000402400008024004
:10199000000C0240001002400014024000180240F7
:1019A000001C0240083C0140024613690B400BB189
:1019B000012000E0002070470AB1816101E00B04C2
:1019C00083617047014800687047000014000020E0
:1019D00003480068034909780844014908607047D2
:1019E000140000201C00002010B50D48006840F4D1
:1019F00000700B4908600846006840F48060086089
:101A00000846006840F480700860032000F0A8F8E1
:101A10000F2000F007F800F02BF8002010BD0000A8
:101A2000003C024070B504460E4800784FF47A71CD
:101A3000B1FBF0F00C490968B1FBF0F5284600F065
:101A400031FC08B1012070BD102C07D200222146C4
:101A5000501E00F047F80548046001E00120F2E75D
:101A60000020F0E71C0000202000002018000020CB
:101A700008B500BF002000901148006840F4804085
:101A80000F4908600846006800F48040009000BFDD
:101A900000BF00BF00200090081F006840F0805089
:101AA000091F08600846006800F08050009000BFE1
:101AB00000BF00220F21901E00F014F808BD0000A6
:101AC0004438024001460846002809DB00F01F03A5
:101AD00001229A4043099B0003F1E023C3F800214F
:101AE00000BF70472DE9F05F80460D46164600277F
:101AF00003F056FB074639462A46334601F00700F5
:101B0000C0F1070ABAF1040F02D94FF0040A01E04C
:101B1000C0F1070AD14600F1040ABAF1070F02D258
:101B20004FF0000A01E0A0F1030AD4464FF0010A89
:101B30000AFA09FAAAF1010A0AEA020A0AFA0CFAEE
:101B40004FF0010B0BFA0CFBABF1010B0BEA030B93
:101B50004AEA0B042146404603F02AFBBDE8F09F09
:101B600000BF00F00702064B19684FF6FF0319404B
:101B7000044B0B4343EA0221014B196000BF70473D
:101B80000CED00E00000FA0570B504460D460CB9F6
:101B9000012070BD5848006800F00700A84209D233
:101BA00055490D700846006800F00700A84201D0B2
:101BB0000120EEE7207800F0020002281DD12078F5
:101BC00000F00400042805D14C48006840F4E050BF
:101BD0004A490860207800F00800082805D14748E5
:101BE000006840F46040454908604448006820F0BF
:101BF000F000A168084341490860207800F0010026
:101C0000A8B36068012807D13C4808380068C0F3D1
:101C10004040B8B90120BCE76068022802D0606883
:101C2000032807D1354808380068C0F3406048B938
:101C30000120AEE7314808380068C0F3400008B919
:101C40000120A6E72D48006820F0030061680843E2
:101C50002A490860FFF7B6FE064609E0FFF7B2FE24
:101C6000801B41F28831884202D9032091E707E0C6
:101C70002248006800F00C006168B0EB810FEDD1E4
:101C80001D48006800F00700A84209D91A490D70E4
:101C90000846006800F00700A84201D0012078E75C
:101CA000207800F00400042807D11448006820F4CC
:101CB000E050E168084311490860207800F008000E
:101CC000082808D10D48006820F46040216940EAE6
:101CD000C1000A49086000F03FF808490968C1F3EB
:101CE0000311074A515CC84006490860064800686D
:101CF000FFF798FE00204CE7003C02400838024005
:101D0000487B0008200000201800002001480068DF
:101D1000704700002000002000B5FFF7F7FF0449DE
:101D20000968C1F38221034A515CC84000BD00002C
:101D300008380240587B000800B5FFF7E7FF044968
:101D40000968C1F34231034A515CC84000BD00003C
:101D500008380240587B00082DE9F0470024002590
:101D60000026A1462548006800F00C0020B1042898
:101D700005D008283AD105E0DFF8849039E0DFF893
:101D8000849036E01D48001F006800F03F041B48A7
:101D9000001F006800F4800078B11A481749091F35
:101DA0000968C1F38811A0FB017001462246002397
:101DB0003846FEF7DBFA05460EE011480F49091FC9
:101DC0000968C1F38811A0FB017001462246002377
:101DD0003846FEF7CBFA05460848001F0068C0F3F6
:101DE0000140401C4600B5FBF6F902E0DFF8109018
:101DF00000BF00BF4846BDE8F08700000838024039
:101E00000024F400001BB700F8B504460CB901200B
:101E1000F8BD207800F00100002874D0F94800686F
:101E200000F00C0004280DD0F648006800F00C000B
:101E3000082813D1F348001F006800F48000B0F5B3
:101E4000800F0BD1EF4808380068C0F340400028ED
:101E500059D06068002856D10120D9E700BF6068DA
:101E6000B0F5803F08D1E7480838006840F480307A
:101E7000E449083908601EE06068B0F5A02F0DD174
:101E8000E0480838006840F48020DE4908390860DE
:101E90000846006840F4803008600CE0D9480838F3
:101EA000006820F48030D749083908600846006887
:101EB00020F48020086000BF606890B1FFF782FDC9
:101EC000054606E0FFF77EFD401B642801D903208C
:101ED0009EE7CC4808380068C0F340400028F1D0A5
:101EE00011E0FFF76FFD054606E0FFF76BFD401BB5
:101EF000642801D903208BE7C24808380068C0F382
:101F000040400028F1D1207800F0020002285FD183
:101F1000BC48006800F00C0058B1BA48006800F0F6
:101F20000C0008281CD1B748001F006800F480008E
:101F3000B0B9B44808380068C0F3400020B1E06888
:101F4000012801D0012063E7AE480838006820F07E
:101F5000F800216940EAC100AA490839086037E061
:101F6000E06800B30120A8490860FFF72BFD054693
:101F700006E0FFF727FD401B022801D9032047E7B1
:101F8000A04808380068C0F340000028F1D09D4800
:101F90000838006820F0F800216940EAC10099493A
:101FA0000839086014E0002097490860FFF70AFD2F
:101FB000054606E0FFF706FD401B022801D9032075
:101FC00026E7904808380068C0F340000028F1D1A7
:101FD000207800F0080008282CD16069A8B1012001
:101FE0008A490860FFF7EEFC054606E0FFF7EAFCC9
:101FF000401B022801D903200AE782486C300068A0
:10200000C0F340000028F1D014E000207F490860B0
:10201000FFF7D8FC054606E0FFF7D4FC401B02287A
:1020200001D90320F4E677486C300068C0F3400023
:102030000028F1D1207800F00400042870D1002796
:1020400070483830006800F0805090B900BF002020
:1020500000906C483830006840F080506949383151
:1020600008600846006800F08050009000BF00BF84
:1020700001276748006800F48070B0B964480068C0
:1020800040F4807062490860FFF79CFC054606E05A
:10209000FFF798FC401B022801D90320B8E65C48F2
:1020A000006800F480700028F2D000BFA06801280A
:1020B00008D154486830006840F001005149683147
:1020C00008601DE0A06805280DD14E486830006802
:1020D00040F004004B49683108600846006840F051
:1020E000010008600CE047486830006820F00100FB
:1020F0004449683108600846006820F00400086020
:1021000000BFA068A8B1FFF75DFC054609E0FFF736
:1021100059FC401B41F28831884202D9032077E6FE
:1021200026E0384868300068C0F340000028EED050
:1021300013E0FFF747FC054608E0FFF743FC401BB0
:1021400041F28831884201D9032061E62D48683088
:102150000068C0F340000028EFD1012F07D12948C3
:102160003830006820F0805026493831086000BFC0
:10217000A069002845D02348006800F00C0008281A
:102180005DD0A069022845D100201F490866FFF7ED
:1021900019FC054606E0FFF715FC401B022801D993
:1021A000032035E6174808380068C0F3406000286F
:1021B000F1D1D4E907010843616A40EA81110122A3
:1021C000A06AC2EB500041EA00412C20005D41EAC8
:1021D00000600C49091F086001200B490866FFF7E1
:1021E000F1FB054606E0FFF7EDFB401B022801D995
:1021F00003200DE6034808380068C0F3406000285B
:10220000F1D049E00838024000004742800E4742C2
:1022100000700040002021490866FFF7D3FB054607
:1022200006E0FFF7CFFB401B022801D90320EFE5B2
:102230001B480068C0F340600028F2D12CE0A06980
:10224000012800D1E4E51648001D0668A0690128B0
:1022500020D006F48001E06981421BD106F03F01E5
:10226000206A814216D147F6C0703040616AB0EBF7
:10227000811F0FD106F440310122A06AC2EB500049
:10228000B1EB004F06D106F070612C20005DB1EB80
:10229000006F01D00120BBE50020B9E500004742F6
:1022A0000038024070B504462546681EB0F1807FB4
:1022B00001D301200FE0681E4FF0E02148610F219B
:1022C0004FF0FF3002F074FF00204FF0E0218861F2
:1022D00007200861002070BD10B50346002200BF32
:1022E00093F83C00012801D1022010BD012083F8A1
:1022F0003C0000BF22F0FF00CC6840EA040222F458
:1023000040708C6840EA040222F480604C6840EA25
:10231000040222F400600C6840EA040222F48050B7
:102320000C6940EA040222F400504C6940EA0402BD
:1023300022F48040CC6940EA04021868426400BF7D
:10234000002083F83C0000BF00BFCEE730B5024656
:102350000B4600BF92F83C00012801D1022030BD9D
:10236000012082F83C0000BF022082F83D00106886
:1023700044681068816824F0700418680443106889
:102380004460184D1068A8421BD01068B0F1804F0F
:1023900017D0154D1068A84213D0144D1068A842EC
:1023A0000FD0134D1068A8420BD0124D1068A842F0
:1023B00007D0114D1068A84203D0104D1068A842F4
:1023C00005D121F080015868014310688160012027
:1023D00082F83D0000BF002082F83C0000BF00BF33
:1023E000BDE700000000014000040040000800407C
:1023F000000C004000040140004001400018004073
:1024000010B504460CB9012010BD94F83D0028B960
:10241000002084F83C00204600F026F8022084F8D2
:102420003D00211D206801F05BFA012084F8460080
:1024300000BF84F83E0001213F2001554020015596
:102440004120015500BF00BF012084F84200432015
:102450000155442001554520015500BF012084F855
:102460003D000020D0E7000038B50446254920682B
:1024700088420FD100BF002000902348006840F040
:102480000800214908600846006800F00800009034
:1024900000BF36E01D492068884232D100BF0020CD
:1024A00000901948001D006840F002001649091DFF
:1024B00008600846006800F00200009000BF00BFFE
:1024C0001348144908604FF060604860402111488B
:1024D00081600021C1604FF4806101614900416168
:1024E000890081610021C16101624162FFF7ECF85E
:1024F00008B1FEF75BF900BF0649A1620846846394
:1025000000BF38BD000C00404038024000040140CC
:102510005864024014020020014691F83D00012851
:1025200001D001207047022081F83D001A4B086855
:1025300098421BD00868B0F1804F17D0174B08683D
:10254000984213D0164B086898420FD0154B086874
:1025500098420BD0144B0868984207D0134B086878
:10256000984203D0124B086898420CD108688068E2
:1025700000F00702062A0CD00868006840F001004D
:102580000B68186005E00868006840F001000B68FF
:1025900018600020C6E70000000001400004004071
:1025A00000080040000C00400004014000400140D1
:1025B000001800402DE9F04104460D46002700BFF9
:1025C00094F83C00012802D10220BDE8F0810120EE
:1025D00084F83C0000BF022084F83D002068866833
:1025E00026F0770626F47F46206886602868502803
:1025F00033D00CDC202850D004DC00284BD010282D
:1026000051D149E0302849D040284CD139E06028E8
:102610002DD0702807D0B0F5805F03D0B0F5005FF3
:1026200041D10DE041E0D5E902136A68206801F06C
:10263000D4F92068866846F077062068866034E022
:10264000D5E902136A68206801F0C7F9206880683C
:1026500040F480402168886027E0EA686968206863
:1026600001F0ACFA5021206801F0C2F91DE0EA68DF
:102670006968206801F0B5FA6021206801F0B8F9B6
:1026800013E0EA686968206801F098FA4021206840
:1026900001F0AEF909E000BF00BF00BF2968206863
:1026A00001F0A6F901E0012700BF00BF012084F876
:1026B0003D0000BF002084F83C0000BF384684E79E
:1026C00010B586B00446142101A8FDF713FF234975
:1026D000206888421ED100BF00200090204800687A
:1026E00040F080001E4908600846006800F0800045
:1026F000009000BF00BF4FF4E05001900220029014
:102700000020039004900220059001A91548FFF7CE
:1027100051F820E01449206888421CD100BF0020F5
:1027200000900F48006840F480700D49086008462A
:10273000006800F48070009000BF00BF402001904E
:10274000022002900020039004900320059001A92C
:102750000648FFF72FF806B010BD0000000C00403F
:1027600030380240001C02400004014000200240BA
:102770002DE9F04104460D461646002700BF94F8A7
:102780003C00012802D10220BDE8F081012084F83C
:102790003C0000BF36B1042E1BD0082E31D00C2EC9
:1027A0005ED145E02946206801F02CF92068806957
:1027B00040F00800216888612068806920F00400EA
:1027C00021688861206880692969084321688861D7
:1027D00048E02946206801F04DF92068806940F4FE
:1027E0000060216888612068806920F48060216829
:1027F000886120688069296940EA01202168886130
:1028000030E02946206801F073F92068C06940F083
:1028100008002168C8612068C06920F004002168B0
:10282000C8612068C069296908432168C86119E046
:102830002946206801F098F92068C06940F40060DA
:102840002168C8612068C06920F480602168C8617F
:102850002068C069296940EA01202168C86101E057
:10286000012700BF00BF00BF002084F83C0000BF6C
:10287000384689E710B504460CB9012010BD94F81C
:102880003D0028B9002084F83C00204600F025F8DF
:10289000022084F83D00211D206801F021F801206C
:1028A00084F8460000BF84F83E0001213F20015516
:1028B000402001554120015500BF00BF012084F890
:1028C000420043200155442001554520015500BFD9
:1028D000012084F83D000020D0E7704770B5044621
:1028E0000D4615B994F83E000BE0042D02D13F20AF
:1028F000005D06E0082D02D14020005D01E041208E
:10290000005D012801D0012070BD1DB9022084F8AE
:102910003E000EE0042D03D102213F20015508E0C6
:10292000082D03D102214020015502E0022141205F
:10293000015501222946206801F03EF8234920680C
:10294000884203D022492068884201D1012000E05A
:10295000002028B12068406C40F4004021684864A1
:102960001A49206888421BD02068B0F1804F17D0E8
:1029700018492068884213D01749206888420FD030
:102980001649206888420BD011492068884207D038
:1029900013492068884203D01249206888420CD12C
:1029A0002068806800F00706062E0CD020680068BA
:1029B00040F001002168086005E02068006840F0F0
:1029C00001002168086000209EE70000000001402F
:1029D000000401400004004000080040000C0040DA
:1029E00000400140001800402DE9F84F04460F4612
:1029F00090461D46DDF828A094F83E0020287CD1A2
:102A000017B1B8F1000F02D10120BDE8F88F00BF67
:102A100094F83C00012801D10220F6E7012084F857
:102A20003C0000BF00202064222084F83E000120EA
:102A30002063FEF7C7FF8346A4F82C80A4F82E80FD
:102A4000A068B0F5805F04D1206910B90026B946AE
:102A500002E03E464FF0000900BF002084F83C0031
:102A600000BF288052E02068006800F010001028A5
:102A700011D100BF002000902068006800902068FD
:102A80004068009000BF00BF288820B1202084F853
:102A90003E000020B9E72068006800F020002028F0
:102AA00021D146B920684068C0F30800A9F80000A9
:102AB00009F1020911E0A068B0F5805F03D0A068B9
:102AC00028B9206918B920684068307004E020688F
:102AD000406800F07F003070761C2888401C2880F9
:102AE000E08D401EE0850AF1010078B1FEF76AFF33
:102AF000A0EB0B00504504D800E013E0BAF1000F42
:102B000004D1202084F83E0003207EE7E08D0028D9
:102B1000A9D1A08DE18D401A2880202084F83E00A4
:102B2000002072E7022070E7704770472DE9F84FE8
:102B30000446206805682068C668206847694FF029
:102B40000009CA4605F00F09B9F1000F0AD105F0D6
:102B5000200038B106F0200020B1204601F0A5F891
:102B6000BDE8F88FB9F1000F7CD007F0010018B96B
:102B700006F49070002875D005F0010030B106F41D
:102B8000807018B1206C40F00100206405F0040052
:102B900030B107F0010018B1206C40F00200206451
:102BA00005F0020030B107F0010018B1206C40F0D0
:102BB0000400206405F0080048B106F0200010B9B8
:102BC00007F0010018B1206C40F008002064206C70
:102BD000002846D005F0200028B106F0200010B1F2
:102BE000204601F062F820684069C0F3801A206C2A
:102BF00000F0080010B9BAF1000F2DD0204601F006
:102C00000EF82068406900F04000402820D100BF45
:102C100000BF2168143151E8001F21F040002168F5
:102C2000143141E80002002AF3D100BFA06B50B17B
:102C30007548A16B0865A06BFEF711FC88B1A06B0D
:102C4000016D88470DE02046FFF76FFF09E009E0BE
:102C50002046FFF76AFF04E02046FFF766FF0020EA
:102C600020647DE7206B012876D105F01000002854
:102C700072D006F010000028FAD000BF00200090AB
:102C800020680068009020684068009000BF00BF86
:102C90002068406900F0400040285ED1A06B0068C9
:102CA00040681FFA80F8B8F1000F54D0A08D40455D
:102CB00051DDA4F82E80A06BC069B0F5807F43D0B1
:102CC00000BF00BF21680C3151E8001F21F4807063
:102CD00021680C3141E80002002AF3D100BF00BF97
:102CE00000BF2168143151E8001F21F00100216864
:102CF000143141E80002002AF3D100BF00BF00BF39
:102D00002168143151E8001F21F04000216814317E
:102D100041E80002002AF3D100BF202084F83E00E1
:102D20000020206300BF00BF21680C3151E8001F64
:102D300021F0100021680C3141E80002002AF3D193
:102D400000BFA06BFEF735FBA08DE28D801A81B22B
:102D50002046FFF7E9FE03E740E0A08DE18D401A31
:102D60001FFA80F8E08DC0B3B8F1000F35D000BF76
:102D700000BF21680C3151E8001F21F490702168D8
:102D80000C3141E80002002AF3D100BF00BF00BFB0
:102D90002168143151E8001F21F00100216814312D
:102DA00041E80002002AF3D100BF202084F83E0051
:102DB0000020206300BF00BF21680C3151E8001FD4
:102DC00021F0100021680C3141E80002002AF3D103
:102DD00000BF41462046FFF7A7FEC1E605F0800090
:102DE00030B106F0800018B1204601F0F1F8B7E6E6
:102DF00005F0400030B106F0400018B1204600F068
:102E000044FFADE600BFABE60B3C000810B504463E
:102E10000CB9012010BDA06900B100E000BF94F81A
:102E20003D0028B9002084F83C00204600F028F836
:102E3000242084F83D002068C06820F400502168F8
:102E4000C860204600F0AEFF2068006920F4904082
:102E5000216808612068406920F02A0021684861E3
:102E60002068C06840F400502168C86000202064D9
:102E7000202084F83D0084F83E000020CAE70000CE
:102E800010B586B00446142101A8FDF733FB7A493A
:102E90002068884256D100BF002000907748006823
:102EA00040F01000754908600846006800F0100006
:102EB000009000BF00BF00BF002000906F48143892
:102EC000006840F002006D49143908600846006847
:102ED00000F00200009000BF00BF00BF0020009083
:102EE0000846006840F0010008600846006800F0ED
:102EF0000100009000BF00BF8020019002200290DE
:102F000000200390032004900720059001A95C484D
:102F1000FEF750FC4FF40070019002200290002058
:102F20000390032004900720059001A95548FEF75F
:102F300041FC002205212520FEF7D4FD2520FEF7C7
:102F4000C1FD96E05049206888425DD100BF002055
:102F500000904A48001F006840F480204749091F3C
:102F600008600846006800F48020009000BF00BFA1
:102F700000BF0020009041481438006840F0040071
:102F80003E49143908600846006800F004000090CB
:102F900000BF00BF4FF4406001900220029000206B
:102FA0000390032004900720059001A93748FEF7FD
:102FB00001FC3748374908604FF000604860002145
:102FC00034488160C1604FF480610161002141613A
:102FD00081614FF48071C1614FF440310162002181
:102FE0004162FEF771FB08B1FDF7E0FB00BF294825
:102FF000A063846300BF002205212720FEF772FD35
:103000002720FEF75FFD34E023492068884230D155
:1030100000BF002000901948006840F020001749C8
:1030200008600846006800F02000009000BF00BF64
:1030300000BF0020009011481438006840F04000A4
:103040000E49143908600846006800F040000090FE
:1030500000BF00BF4FF48440019002200290002086
:103060000390032004900820059001A90B48FEF767
:10307000A1FB06B010BD0000001001404438024022
:1030800000040240000002400048004000080240E6
:103090002860024040030020001401400018024054
:1030A00070472DE9F84F04460E46174699464FF0F3
:1030B000000A94F83D0020285AD106B117B9012022
:1030C000BDE8F88F00BF94F83C00012801D1022030
:1030D000F6E7012084F83C0000BF00202064212096
:1030E00084F83D00FEF76EFC8246A784E784A06862
:1030F000B0F5805F04D1206910B90025B04602E028
:1031000035464FF0000800BF002084F83C0000BFA7
:103110001BE05346002280212046CDF8009000F0AD
:1031200087FF08B10320CBE745B9B8F80000C0F32A
:1031300008002168486008F1020803E02878216847
:1031400048606D1CE08C401EE084E08C0028E0D1DB
:103150005346002240212046CDF8009000F068FF41
:1031600008B10320ACE7202084F83D000020A7E749
:103170000220A5E7704700BFFEE7000003F000FF54
:103180001A490860002407E0A0B201F059F94FF491
:103190007A7003F057F9641C032CF5DD0020144904
:1031A0000884012048849FED130A084680ED090A2F
:1031B0009FED100A80ED0A0A9FED0E0A80ED0B0AC2
:1031C0009FED0C0A80ED0C0A9FED0A0A80ED0D0AB6
:1031D0000AE009480078401C07490870074801F0D8
:1031E00079FD0F2003F02EF9F3E70000A400002082
:1031F000F84E00200000000018010020744C002050
:1032000000BF074801F0FCFF4FF4FA7002F09AF893
:10321000044801F0F5FF4FF4FA7002F093F8F0E77C
:103220005634127F0085177F10B50F480F4908608C
:103230000320486000210D488160C1604FF41021D7
:1032400001614FF4001141610021017641768176E0
:10325000C17601774177FDF7E4FD08B1FDF7A6FAE5
:103260000248FEF770F810BD0064004034010020F1
:1032700010B50F480F4908600320486000210D4831
:103280008160C1604FF4102101614FF40011416170
:103290000021017641768176C17601774177FDF78D
:1032A000C0FD08B1FDF782FA0248FEF74CF810BDE8
:1032B000006800405C01002008B500BF00200090BD
:1032C0001648006840F40010144908600846006879
:1032D00000F40010009000BF00BF00BF002000906D
:1032E0000846006840F4800008600846006800F462
:1032F0008000009000BF00BF002205210C20FEF7D7
:10330000F1FB0C20FEF7DEFB002205213B20FEF73F
:10331000E9FB3B20FEF7D6FB08BD00003038024039
:1033200010B50E4A00210E4802F062F80D490860FF
:103330000D4A00210D4802F05BF80D4908600D4A66
:1033400000210D4802F054F80C4908600C4A002195
:103350000C4802F04DF80C49086010BDB07A000826
:10336000F937000800000020D47A00087D310008F9
:1033700004000020F87A000819370008080000202F
:103380001C7B0008013200080C00002000B587B04B
:10339000142102A8FDF7AEF800BF002001904948B3
:1033A000006840F00200474908600846006800F0E5
:1033B0000200019000BF00BF00BF0020019008463E
:1033C000006840F0400008600846006800F04000D7
:1033D000019000BF00BF00BF0020019008460068B8
:1033E00040F0010008600846006800F0010001900C
:1033F00000BF00BF00BF002001900846006840F0F9
:10340000080008600846006800F00800019000BF4E
:1034100000BF00BF002001900846006840F0040093
:1034200008600846006800F00400019000BF00BF7B
:1034300000BF002001900846006840F480700860DA
:103440000846006800F48070019000BF00BF00BF14
:10345000002001900846006840F08000086008469F
:10346000006800F08000019000BF00BF00BF002096
:1034700001900846006840F01000086008460068A7
:1034800000F01000019000BF00BF002240210E4854
:10349000FEF792FA40200290012003900020049051
:1034A000059002A90848FEF785F94FF420500290D4
:1034B000002003900220049002A90448FEF77AF944
:1034C00007B000BD30380240000802400010024042
:1034D00000B58DB0002009900A900B900C900790D9
:1034E00008901C216846FDF705F82948294908601D
:1034F000002048600021274881604FF6FF71C160BD
:10350000002101618161FEF77BFF08B1FDF74EF9F3
:103510004FF48050099009A91E48FFF74BF808B1F5
:10352000FDF744F91B48FFF7A5F908B1FDF73EF98F
:1035300000200790089007A91648FEF707FF08B17A
:10354000FDF734F96020009042F2107001900020E5
:1035500002900490002269460E48FFF709F908B16D
:10356000FDF724F9042269460A48FFF701F908B17A
:10357000FDF71CF9082269460648FFF7F9F808B17B
:10358000FDF714F90348FFF79BF80DB000BD0000EC
:10359000000C00408401002000B595B0002011907F
:1035A0001290139014900F9010901C2108A8FCF713
:1035B000A1FF20216846FCF79DFF2A482A490860A0
:1035C00000204860002128488160D121C16000218D
:1035D000016141618161FEF713FF08B1FDF7E6F873
:1035E0004FF48050119011A91F48FEF7E3FF08B176
:1035F000FDF7DCF81C48FFF73DF908B1FDF7D6F8F8
:1036000000200F9010900FA91748FEF79FFE08B1F9
:10361000FDF7CCF860200890002009900A900B90EC
:103620000C900D900E90042208A90F48FFF7A0F807
:1036300008B1FDF7BBF800200090019002900390C4
:1036400004904FF40050059000200790694606480A
:10365000FEF742FE08B1FDF7A9F80348FFF730F87E
:1036600015B000BD00040140CC01002010B50A488F
:103670000A4908600A484860002108488160C16022
:1036800001610C21416100218161C161FFF7BEFB35
:1036900008B1FDF78BF810BD001001407402002046
:1036A00000093D0010B50A480A4908600A48486008
:1036B000002108488160C16001610C214161002145
:1036C0008161C161FFF7A2FB08B1FDF76FF810BD82
:1036D00000480040B8020020A086010010B50B4849
:1036E0000B4908604FF4E1304860002108488160D0
:1036F000C16001610C21416100218161C161FFF75D
:1037000085FB08B1FDF752F810BD00000014014020
:10371000FC02002000BFFEE70D4801F025F914204F
:1037200002F090FE13E00B480078401C0949087035
:10373000074801F04EFA064801F0A0F8044801F0ED
:1037400019F9034801F004F90A2002F07BFEEAE7C8
:10375000104E00201A01002000BFFEE710B5234BD9
:103760001B685B6943F04003204C246863611F4B76
:103770001B68DB6843F010031C4C2468E3601C4B9F
:103780001B681B6823F00103194C2468236007E0C1
:10379000174B1B681B6823F00103154C246823603A
:1037A000134B1B681B6803F00103002BF0D1114B76
:1037B0000F4C2468A3600E4B1B68D8600C4B1B6831
:1037C00019610B4B1B685A60094B1B681B6843F45B
:1037D0008023074C24682360054B1B681B6843F05B
:1037E0000103034C2468236010BD0000B8020020D0
:1037F000400300200448004000BF012001F0A2FD6A
:10380000FBE710B5FEF7E4F803F0AAFB012801D0AE
:1038100002F0F4FF10BD000000B593B0302107A8FE
:10382000FCF768FE142102A8FCF764FE00BF00202C
:1038300001902448006840F0805022490860084602
:10384000006800F08050019000BF00BF00BF002062
:1038500001901D48006840F480401B4908600846FC
:10386000006800F48040019000BF00BF0120079075
:103870000004089002200D9041050E9106210F9141
:10388000A8211091022111910421129107A8FEF79D
:10389000BBFA08B1FCF78AFF0F20029002200390C8
:1038A000002004904FF4A05005904FF480500690F3
:1038B000052102A8FEF768F908B1FCF777FF13B0FD
:1038C00000BD00004038024000700040034800681E
:1038D00040F47000014908607047000088ED00E086
:1038E00010B50268294B98420ED0B0F1804F0BD032
:1038F000274B984208D0274B984205D0264B984238
:1039000002D0264B984203D122F070024B681A4332
:103910001E4B984220D0B0F1804F1DD01C4B9842D6
:103920001AD01C4B984217D01B4B984214D01B4BFB
:10393000984211D01A4B98420ED01A4B98420BD095
:10394000194B984208D0194B984205D0184B984211
:1039500002D0184B984203D122F44072CB681A432C
:1039600022F080034C6943EA040202608B68C36260
:103970000B688362054B984202D0084B984201D1F4
:103980000B6903630123436110BD00000000014087
:103990000004004000080040000C0040000401400A
:1039A0000040014000440140004801400018004030
:1039B000001C00400020004030B501F01F0501242C
:1039C00004FA05F3046A9C430462046A01F01F05CB
:1039D00002FA05F52C43046230BD30B50C4681680F
:1039E00021F47F4142EA032525432943816030BD0C
:1039F0000A46816821F0700142F007031943816093
:103A00007047000030B5056A25F001050562026ABD
:103A10004368846924F0700424F003040D682C4387
:103A200022F002028D682A43104DA84200D103E023
:103A30000F4DA84206D100BF22F00802CD682A43EC
:103A400022F00402094DA84202D0094DA84207D134
:103A500023F4807323F400734D692B438D692B434A
:103A6000436084614D684563026230BD00000140DF
:103A70000004014030B5056A25F010050562026AB0
:103A80004368846924F4E04424F440740D6844EAF3
:103A9000052422F020028D6842EA0512124DA84248
:103AA00000D103E0114DA84207D100BF22F08002EF
:103AB000CD6842EA051222F040020B4DA84202D026
:103AC0000A4DA84209D123F4806323F400634D69B1
:103AD00043EA85038D6943EA8503436084614D6849
:103AE0008563026230BD0000000001400004014017
:103AF00030B5056A25F480750562026A4368C469B9
:103B000024F0700424F003040D682C4322F40072A6
:103B10008D6842EA0522124DA84200D103E0114D02
:103B2000A84207D100BF22F40062CD6842EA052214
:103B300022F480620A4DA84202D00A4DA84209D15F
:103B400023F4805323F400534D6943EA05138D6930
:103B500043EA05134360C4614D68C563026230BD2A
:103B6000000001400004014030B5056A25F480558D
:103B70000562036A4468C26922F4E04222F440729A
:103B80000D6842EA052223F400538D6843EA0533A9
:103B9000084DA84202D0084DA84204D124F4804424
:103BA0004D6944EA85144460C2614D68056403624E
:103BB00030BD0000000001400004014030B50B465C
:103BC0001446026A056A25F001050562816921F043
:103BD000F00141EA041122F00A021A4381610262F3
:103BE00030BD30B50B461446056A25F01005056258
:103BF0008169026A21F4704141EA043122F0A00295
:103C000042EA03128161026230BD70B50546AC6BB9
:103C10000020E085E0842046FEF787FF70BD00BFEE
:103C200000BF02680C3252E8002F22F49071026843
:103C30000C3242E80013002BF3D100BF00BF00BFDD
:103C40000268143252E8002F22F001010268143297
:103C500042E80013002BF3D100BF016B01290ED104
:103C600000BF00BF02680C3252E8002F22F01001A2
:103C700002680C3242E80013002BF3D100BF202170
:103C800080F83E1000210163704710B5044620689B
:103C9000C06820F040002168C860202084F83D0002
:103CA0002046FFF767FA002010BDF8B5044694F8E7
:103CB0003E00222873D1A068B0F5805F0CD1206946
:103CC00050B90025A66A20684068C0F3080030801B
:103CD000A06A801CA06215E0A56A0026A068B0F565
:103CE000805F03D0A06828B9206918B920684068AF
:103CF000287004E02068406800F07F002870A06A07
:103D0000401CA062E08D401E80B2E085002844D1B6
:103D10002068C06820F020002168C8602068C06862
:103D200020F480702168C8602068406920F001009C
:103D300021684861202084F83E00206B012826D1AC
:103D40000020206300BF00BF21680C3151E8001F34
:103D500021F0100021680C3141E80002002AF3D163
:103D600000BF2068006800F0100010280AD100BFD2
:103D70000020009020680068009020684068009053
:103D800000BF00BFA18D2046FEF7CEFE02E0204618
:103D9000FFF786F90020F8BD01E00020FBE70220D4
:103DA000F9E700002DE9F84F04462068006920F487
:103DB0004050E1680843216808612169A068084310
:103DC00061690843E169084300902068C06849F2CE
:103DD0000C618843009908432168C86020684069E5
:103DE00020F44070A1690843216848617649206841
:103DF000884203D075492068884203D1FDF79CFFB3
:103E0000814602E0FDF788FF8146E069B0F5004F8A
:103E10006CD102206168A0FB015003461920A9FB68
:103E2000007001462A463846FCF7A0FA6421B0FB30
:103E3000F1F04FEA001A02206168A0FB01510B4625
:103E40001920A9FB00712A463846FCF78FFA8346F1
:103E500002206168A0FB015003461920A9FB0071F4
:103E60002A463846FCF782FA6421B0FBF1F000EBF9
:103E7000C00101EB0010ABEB8000322101EBC00070
:103E80006421B0FBF1F000F0F8000AEB400A0220D8
:103E90006168A0FB015003461920A9FB0070014690
:103EA0002A463846FCF762FA834602206168A0FB86
:103EB000015003461920A9FB00712A463846FCF739
:103EC00055FA6421B0FBF1F000EBC00101EB0010EA
:103ED000ABEB8000322101EBC0006421B0FBF1F0BC
:103EE00000F007005044216888606AE0042061689F
:103EF000A0FB015003461920A9FB007001462A4689
:103F00003846FCF733FA824604206168A0FB015072
:103F100003461920A9FB007001462A463846FCF7E3
:103F200025FA6421B0FBF1F000EBC00101EB0010B9
:103F3000AAEB8000322101EB00106421B0FBF1F00C
:103F400000F0F00A04206168A0FB0170034619200C
:103F5000A9FB00513A462846FCF708FA6421B0FB59
:103F6000F1F00AEB001A04206168A0FB01510B4636
:103F70001920A9FB00712A463846FCF7F7F9834659
:103F800004206168A0FB015003461920A9FB0070C2
:103F900001462A463846FCF7E9F96421B0FBF1F006
:103FA00000EBC00101EB0010ABEB8000322101EB14
:103FB00000106421B0FBF1F000F00F0050442168C4
:103FC0008860BDE8F88F0000001001400014014037
:103FD000014691F83D00212828D18868B0F5805F1E
:103FE0000BD1086948B90A6A1088C0F308000B6849
:103FF0005860086A801C086205E00B6A581C086259
:1040000018780B685860C88C401E80B2C88458B9B4
:104010000868C06820F080000B68D8600868C06835
:1040200040F040000B68D860002070470220FCE799
:104030002DE9F04104460D4617469846069E34E0A9
:10404000701C88B32EB1FDF7BDFCA0EB0800B04298
:104050002BD900BF00BF21680C3151E8001F21F4AB
:10406000D07021680C3141E80002002AF3D100BF72
:1040700000BF00BF2168143151E8001F21F001008A
:104080002168143141E80002002AF3D100BF20204A
:1040900084F83D0084F83E0000BF002084F83C0016
:1040A00000BF0320BDE8F081FFE7206800682840DA
:1040B000A84201D1012000E00020B842C0D0002079
:1040C000F0E7000010B50248FEF730FD10BD00001B
:1040D0007402002008B541480068006800F0200024
:1040E00060B100BF002000903C480068006800906C
:1040F0003A4800684068009000BF6EE038480068A9
:1041000000F01000002868D000BF00200090334865
:10411000006800680090314800684068009000BF67
:1041200000BF30480068006800F4002058BB2D48EC
:104130000068006820F001002A49096808602948E1
:1041400000684068C0F124002749088024202549E0
:104150000968486023480068006840F4002021494D
:10416000096808601F480068006840F001001D49A8
:10417000096808601C48008812282ED11B491C4879
:1041800001F06AFF29E017480068006820F001008C
:10419000144909680860134800684068C0F12400A9
:1041A0001149088024200F49096848601148806A35
:1041B00020F400200F4988620A480068006840F037
:1041C000010008490968086007480088122804D1DE
:1041D00006490748243001F03FFF08BDB80200201F
:1041E000004800404003002030010020784F0020AC
:1041F0008E4F00200060024000BFFEE710B504466D
:1042000011206061FE202070EE206070208C00285C
:1042100002DA0020208404E0208C0F2801DD0F202A
:104220002084608C002802DA0020608404E0608C26
:10423000072801DD0720608494ED0C0AB5EEC00A62
:10424000F1EE10FA04D29FED720A84ED0C0A0CE034
:1042500094ED0C0ADFED6F0AB4EEE00AF1EE10FA0D
:1042600003DD9FED6C0A84ED0C0A94ED0D0AB5EEAA
:10427000C00AF1EE10FA04D29FED650A84ED0D0A32
:104280000CE094ED0D0ADFED630AB4EEE00AF1EE06
:1042900010FA03DD9FED5F0A84ED0D0A94ED090A23
:1042A000DFED5D0AB4EEE00AF1EE10FA04D29FED04
:1042B0005A0A84ED090A0CE094ED090ADFED570A69
:1042C000B4EEE00AF1EE10FA03DD9FED540A84ED3E
:1042D000090A94ED0A0ADFED520AB4EEE00AF1EEA3
:1042E00010FA04D29FED4E0A84ED0A0A0CE094ED18
:1042F0000A0ADFED4C0AB4EEE00AF1EE10FA03DD33
:104300009FED480A84ED0A0A94ED0B0ADFED460A98
:10431000B4EEE00AF1EE10FA04D29FED430A84ED08
:104320000B0A0CE094ED0B0ADFED400AB4EEE00A54
:10433000F1EE10FA03DD9FED3D0A84ED0B0A94F8CF
:104340002000A17860F30301A17094F82200A17805
:1043500060F30611A17094ED0C0A9FED351AC0EEC2
:10436000010A9FED340A20EE800ABDEEC00A10EE6D
:10437000100A01B2E01CA4F80B1094ED0D0ADFED59
:104380002C0A80EE201A9FED2B0A21EE000ABDEECA
:10439000C00A10EE100A01B2E01CA4F80D1094ED52
:1043A0000B0ADFED250A80EE201A9FED220A21EE8E
:1043B000000ABDEEC00A10EE100AC4F8070094ED22
:1043C0000A0A9FED1D1AC0EE010A9FED1C0A20EE9D
:1043D000800ABDEEC00A10EE100A01B2E01CA4F87B
:1043E000051094ED090ADFED150A20EE200ABDEE56
:1043F000C00A10EE100A00B2A4F803000F222146F2
:10440000002000F027FAA4F80F00002010BD0000E3
:1044100000000000C1CACC41E1FAFFC2E1FAFF424C
:10442000000049C400004944C00FC9C8C00FC948B2
:10443000CDCCCC4100000047F90FC94000008043BB
:1044400010B58AB0044604F58070049000200790EF
:10445000069008200890FF208DF808008DF80900CC
:104460008DF80A008DF80B008DF80C008DF80D000A
:104470008DF80E00FC208DF80F0001AB02AA04A9F4
:104480000248FCF7ABF90AB010BD00005C01002047
:1044900030B589B004460D469FED5D0A8DED040AE6
:1044A00094ED0B0AD5ED0E0A30EE600A8DED030A8D
:1044B000DDED030AB0EE600A00F06DFEF1EE040AD5
:1044C000B4EEE00AF1EE10FA18DB9FED520A84ED2B
:1044D0000C0A9DED030AB5EEC00AF1EE10FA04DDF8
:1044E000B6EE000A84ED0A0A03E0BEEE000A84ED8F
:1044F0000A0A9FED490A8DED010A42E0DDED030A4B
:10450000B0EE600A00F047FEF0EE080AB4EEE00AF2
:10451000F1EE10FA25DDDDED030AB0EE600A00F0E1
:104520003AFEF1EE040AB4EEE00AF1EE10FA18D207
:104530009FED3A0A84ED0C0A9DED030AB5EEC00A20
:10454000F1EE10FA04DD9FED360A84ED0A0A03E06D
:104550009FED340A84ED0A0A9FED330A8DED010ABE
:104560000FE09FED320A84ED0C0A9FED310A84EDD5
:104570000D0A9FED270A84ED0A0A9FED2E0A8DEDA4
:10458000010ADDED030AB0EE600A00F004FEF1EE70
:10459000000AB4EEE00AF1EE10FA04DB94ED0B0A27
:1045A00084ED0B0A09E09DED060ADDED010A9DEDA3
:1045B000031A00EE810A8DED060A9DED060ADDED77
:1045C000040AF1EE600AB4EEE00AF1EE10FA04D249
:1045D0009DED040AB1EE400A0DE09DED060ADDED09
:1045E000040AB4EEE00AF1EE10FA02DD9DED040AD1
:1045F00001E09DED060A8DED060A9DED060AD4ED5B
:104600000B0A30EE200A84ED0B0A09B030BD000021
:10461000000000009A99993E6F12833BCDCCCC3EAE
:10462000CDCC4C3ECDCC4CBEA69B443B3333333F2C
:10463000EC51383DBC74933B0448006800F4E060E2
:1046400003490843001D0149086070470CED00E074
:104650000000FA050146887800F00F0081F8240078
:104660008878C0F3021081F8250091F90B00886268
:10467000087B00F0070081F82C00B1F9050000EE7E
:10468000100AF8EEC00A9FED191A80EE810ADFEDDC
:10469000180A20EE200A81ED0D0AB1F9030000EEA0
:1046A000100AB8EEC00ADFED110A80EE201A81ED83
:1046B0000C1AD1F8070000EE100AB8EEC00ADFEDC0
:1046C0000C0A20EE200ADFED0B0A80EE201A81EDA5
:1046D0000E1A8889C0F3CB0000EE100AB8EE400A2B
:1046E00081ED0F0A01200862086A704700008043CC
:1046F000F90FC9400000004771B52DED020B89B0DC
:10470000064609AC0AAD06F58070039000200690BD
:104710000820079020788DF8040060788DF8050057
:10472000A0788DF80600E0788DF8070028788DF8DD
:10473000080068788DF80900A8788DF80A00E878F4
:104740008DF80B006B4601AA03A90248FCF746F856
:104750000CB070BD5C010020B0EE401A30EEC10A12
:10476000F0EE401AB0EE412A00EE100AB8EEC00A90
:1047700060EE212A01228A40521E00EE102AB8EE75
:10478000C03A82EE830A30EE020A7047024682EA9D
:104790000100C0B2024B33F8100080EA22207047BB
:1047A000A07B000838B505460C4621462846FFF791
:1047B0006FFE2846FFF722FD012240212148FDF728
:1047C000FBF80A23112229461F48FEF76AFC002243
:1047D00040211C48FDF7F0F80A201C4B0E22214610
:1047E00000901948FEF700F91848008808B903201E
:1047F00038BD164800880E2801D00120F8E714487B
:10480000046000680078FD281AD1114800684078DB
:10481000EE2815D1A07800F00F0078B9A078C0F389
:10482000021001280AD1207B00F0070030B90120D6
:1048300020622046FFF70EFF0020D9E70120D7E7CE
:104840000120D5E70008024074020020200100206A
:10485000240100202DE9F04105460C4616462F465E
:1048600005E014F8011B3846FFF790FF0746301E9D
:10487000A6F10106F5D13846BDE8F08110B5044631
:104880003420005D01280DD15620005D50B9012172
:10489000562001555B20015504F13201204600F0FD
:1048A00076FC12E03420005D01280ED15620005D18
:1048B00001280AD100215620015502215B20015513
:1048C00004F13201204600F062FC207B012808D16F
:1048D00000215B20015504F10A01204600F057FC3D
:1048E0000BE02520005D012807D103215B20015545
:1048F00004F12301204600F04AFC2020005D01283D
:104900000BD15520005D40B901215520015504F11E
:104910001E01204600F03BFC0FE02020005D012836
:104920000BD15520005D012807D1002155200155EC
:1049300004F11E01204600F02AFCE06DC07A012837
:1049400005D1E06D807A012801D1FFF775FE10BD19
:1049500010B504466320035D6220025D4FF493713D
:10496000204600F03DF910BD10B5044600F0B2FC41
:10497000E06510BD10B504464FF400610648FDF730
:1049800013F8622108554FF400510348FDF70CF865
:104990006321085510BD00000010024010B5044608
:1049A000E06D808A00F4007028B1621D012120466C
:1049B00000F0E4FB04E0621D0021204600F0DEFB75
:1049C000E06D808A00F4005028B122460121204683
:1049D00000F0D4FB04E022460021204600F0CEFB8C
:1049E000E06D808A00F4805030B104F10F020121A3
:1049F000204600F0C3FB05E004F10F020021204631
:104A000000F0BCFBE06D808A00F4006030B104F17E
:104A100028020121204600F0B1FB05E004F1280244
:104A20000021204600F0AAFBE06D007D00F0400070
:104A300030B104F114020121204600F07FFB05E0B3
:104A400004F114020021204600F078FBE06D007DA7
:104A500000F0800030B104F119020121204600F07D
:104A60006DFB05E004F119020021204600F066FB11
:104A7000E06D808A00F4807030B104F11E020121E3
:104A8000204600F05BFB05E004F11E0200212046F9
:104A900000F054FBE06D808A00F4804030B104F1F6
:104AA0000A020121204600F049FB05E004F10A0258
:104AB0000021204600F042FBE06D808A00F4806017
:104AC00030B104F123020121204600F037FB05E05C
:104AD00004F123020021204600F030FBE06D808AC3
:104AE00000F4807030B104F11E020121204600F074
:104AF00025FB05E004F11E020021204600F01EFB0C
:104B0000E06D808A00F4806030B104F1230201215D
:104B1000204600F013FB05E004F1230200212046AB
:104B200000F00CFBE06D807C30B104F12D0201211E
:104B3000204600F003FB05E004F12D020021204691
:104B400000F0FCFAE06DC07C30B104F132020121CA
:104B5000204600F0F3FA05E004F13202002120467D
:104B600000F0ECFAE06D007D00F0100030B104F1CF
:104B700037020121204600F001FB05E004F1370275
:104B80000021204600F0FAFAE06D007D00F02000E0
:104B900030B104F13C020121204600F0EFFA05E0BB
:104BA00004F13C020021204600F0E8FAE06D808A22
:104BB00000F4004030B104F141020121204600F030
:104BC000DDFA05E004F141020021204600F0D6FAAA
:104BD00010BD10B504462046FFF7E0FE10BD0000F2
:104BE000F0B589B007460C4615461E4603940020D2
:104BF000069008200790E8B28DF80400F0B28DF816
:104C000005006B4601AA03A90248FBF7E7FD09B0BE
:104C1000F0BD000034010020014601F14D000122E9
:104C20004271002202700122427000228270C27022
:104C300002710122827100BFA0F14D01C01D00224E
:104C400002704270827182700122C27100BFA0F1B5
:104C5000540108467047000070B505460C46052013
:104C600001F0F0FB95ED0E1AF0EE410A94ED031AF7
:104C7000B0EE410A0220FFF73FFD052001F0E2FB04
:104C800095ED0E1AF0EE410A94ED021AB0EE410ACB
:104C90000120FFF731FD052001F0D4FB95ED0E1A40
:104CA000F0EE410A94ED011AB0EE410A0020FFF740
:104CB00023FD052001F0C6FB94ED000A034880EDBA
:104CC0000B0A0349FFF76EFD70BD0000F84E00208F
:104CD000384F002010B50446204600F001F810BD02
:104CE00010B52DED088B0446F24890F85B00F249B0
:104CF0000978884250D0EF4890F85B00C8B301288B
:104D000004D0022813D0032845D121E000200BE075
:104D1000EA4901EB800191ED000A04F13C0101EB4D
:104D2000800181ED000A401C0428F1DB33E0002003
:104D30000BE0E34901EB800191ED000A04F13C0135
:104D400001EB800181ED000A401C0428F1DB22E028
:104D500000200BE0DB4901EB800191ED000A04F13A
:104D60003C0101EB800181ED000A401C0428F1DBCD
:104D700011E0FFE700200BE0D34901EB800191ED4A
:104D8000000A04F13C0101EB800181ED000A401CA6
:104D90000428F1DB00BF00BFC64890F85B00C6499D
:104DA0000870C44890F83E0000287CD0C14991F8B2
:104DB0002A0002F005FC41EC1B0B9FEDC40B53ECE9
:104DC000102B02F011FC41EC190B94ED0F0A10EEC0
:104DD000101A084602F0F0FD41EC1A0B53EC192BA7
:104DE00002F000FD41EC180B02F010FBE063B1494A
:104DF000487C02F0E5FB41EC1B0B9FEDB60B53EC3E
:104E0000102B02F0F1FB41EC190B94ED100A10EE9F
:104E1000101A084602F0D0FD41EC1A0B53EC192B86
:104E200002F0E0FC41EC180B02F0F0FA2064A1491A
:104E3000887802F0C5FB41EC1B0B9FEDA60B53ECF1
:104E4000102B02F0D1FB41EC190B94ED110A10EE7E
:104E5000101A084602F0B0FD41EC1A0B53EC192B66
:104E600002F0C0FC41EC180B02F0D0FA60649149EA
:104E7000C87902F0A5FB41EC1B0B9FED960B53ECA0
:104E8000102B02F0B1FB41EC190B94ED120A10EE5D
:104E9000101A084602F090FD41EC1A0B53EC192B46
:104EA00002F0A0FC00E005E041EC180B02F0AEFAC5
:104EB000A06487E07F4890F8390000287ED07D49C3
:104EC00091F82A0002F07CFB41EC1B0B9FED7F0B5D
:104ED00053EC102B02F088FB41EC190B94ED0F0AF8
:104EE00010EE101A084602F067FD41EC1A0B53EC65
:104EF000192B02F0BDFA41EC180B02F087FAE063BF
:104F00006C49487C02F05CFB41EC1B0B9FED710B84
:104F100053EC102B02F068FB41EC190B94ED100AD6
:104F200010EE101A084602F047FD41EC1A0B53EC44
:104F3000192B02F09DFA41EC180B02F067FA20647D
:104F40005C49887802F03CFB41EC1B0B9FED610B48
:104F500053EC102B02F048FB41EC190B94ED110AB5
:104F600010EE101A084602F027FD41EC1A0B53EC24
:104F7000192B02F07DFA41EC180B02F047FA60643D
:104F80004C49C87902F01CFB41EC1B0B9FED510B07
:104F900053EC102B02F028FB41EC190B94ED120A94
:104FA00010EE101A084602F007FD41EC1A0B53EC04
:104FB000192B02F05DFA41EC180B00E002E002F060
:104FC00025FAA06494ED120AF8EE0A0AB4EEE00A9B
:104FD000F1EE10FA02D2B8EE0A0A0DE094ED120AD0
:104FE000F0EE0A0AB4EEE00AF1EE10FA02DDB0EEDD
:104FF0000A0A01E094ED120A84ED120A94ED110AF6
:10500000FFEE0C0AB4EEE00AF1EE10FA02D2BFEEA7
:105010000C0A0DE094ED110AF7EE0C0AB4EEE00A6A
:10502000F1EE10FA02DDB7EE0C0A01E094ED110A80
:1050300084ED110A94ED100AF8EE0A0AB4EEE00AC3
:10504000F1EE10FA02D2B8EE0A0A0DE094ED100A61
:10505000F0EE0A0AB4EEE00AF1EE10FA02DDB0EE6C
:105060000A0A01E094ED100A84ED100A94ED0F0A8B
:10507000FAEE0C0AB4EEE00AF1EE10FA02D2BAEE41
:105080000C0A0DE094ED0F0AF1EE000AB4EEE00A0E
:10509000F1EE10FA02DDB1EE000A01E094ED0F0A24
:1050A00084ED0F0A04F13C012046FFF7D5FDBDEC6D
:1050B000088B10BD104E002019010020A800002010
:1050C000C8000020D8000020B80000207B14AE47A4
:1050D000E17AA43F7B14AE47E17A943F00BF00BF62
:1050E00000BF0521383040F8081CB6EE000A80EDFC
:1050F000000A9FED100A80ED580A00218176C176E2
:1051000001774177383800BF0BE00B4A02EB810290
:1051100092ED000A00F13C0202EB810282ED000AEE
:10512000491C1029F1D3FF2180F84C10FE22512197
:105130000A54704700000000A8000020012903D194
:1051400013780BB9012313701378012B03D111B914
:10515000937000231370012903D153785B1C5370A3
:1051600001E0002353705378322B02DDD3785B1CAF
:10517000D37053780BB90023D3707047012902D143
:105180000123937002E009B9002393707047002255
:105190008A700A707047F0EE400AB0EEE00A70477D
:1051A00002480068C0F30220704700000CED00E0E8
:1051B00010B5002804DB0A07130E054A135406E055
:1051C0000A07140E034A00F00F031B1FD45410BD2E
:1051D00000E400E018ED00E0EFF305807047000008
:1051E00010B50248FFF718FD10BD0000104E00205A
:1051F00000B50248FFF772FF00BD0000744C0020AC
:10520000010E144A1170C0F30741127811FB02F12C
:10521000114A1180C0F307210E4A127811FB02F1E6
:105220000E4A1180C1B20B4A127811FB02F10C4AEE
:105230001180114609880B4A126851630749098891
:10524000084A1268916304490988064A1268D163C2
:1052500070470000280100202A0100202C010020B6
:105260002E0100208401002000B58BB001200990A0
:105270000020079001200890002001904FF49370C7
:1052800002900020039004900690059001A90F4819
:10529000FBF750FB0D48FCF756F802210B48FBF7D3
:1052A00088FA002002900E200A90069001200590B6
:1052B00001A90748FBF73EFB0548FCF744F802212B
:1052C0000348FBF776FA0BB000BD00003401002064
:1052D0005C01002000487047784F0020FCF784FBF9
:1052E000FEF79AFAFEF752F8FDF7E6FFFEF7DAF955
:1052F000FEF7BCF9FEF7F2F9FDF796FFFDF7B8FFF0
:10530000FEF7E6F8FEF748F9FFF7AEFF00F09AFE69
:105310000B48FDF701F900210948FDF7DFFA0421E8
:105320000748FDF7DBFA08210548FDF7D7FA00F03A
:1053300019F8FDF7F5FF00F02BF800BFFEE70000BD
:105340008401002070B50546FFF746FF10B16FF0ED
:10535000050404E0002415B1284601F073F8204646
:1053600070BD000010B5FFF737FF10B16FF00504F6
:1053700009E00648006820B90120044908600024BB
:1053800001E04FF0FF34204610BD00007400002003
:1053900070B5FFF721FF10B16FF005041FE0114851
:1053A0000068012819D100BF801F0021002804DBFC
:1053B0000A07130E0C4A135406E00A07150E0B4A8F
:1053C00000F00F031B1FD55400BF00BF022005498A
:1053D000086001F0B3F8002401E04FF0FF342046EC
:1053E00070BD00007400002000E400E018ED00E053
:1053F0002DE9FF4780468946144600200390FFF7B9
:10540000EBFE00284ED1B8F1000F4BD080261825B6
:105410008246471E44B3206808B1D4F800A0A069B2
:1054200000B1A5692DB1382D03D8207900F0010015
:1054300018B1002004B0BDE8F087606908B1606968
:105440008608A06840B1E0685C2805D3206918B1DF
:10545000606908B1012708E0A06830B9E06820B9A8
:10546000206910B9002700E00027012F0CD1216925
:10547000A0684B463246CDE9005102905146404665
:1054800001F010FD03900DE067B903A8B2B24B46DE
:105490005146CDE90050404601F0D2FC012801D030
:1054A000002003900398C5E72DE9F04105460E461C
:1054B0001648076816480068001D00F03AFE681C90
:1054C00038B936B112480168091D124800F088FE4B
:1054D0001AE07C190E4800684460BC4207D20C48B0
:1054E0000168091D0C48006800F060FE0CE00848E7
:1054F0000168091D0948006800F058FE0848006866
:10550000844201D206480460BDE8F08138000020E2
:1055100024000020900800202C00002028000020FB
:105520005400002010B5044600F066FE24480068D0
:10553000401C234908602348006840B921480460A2
:105540000846006801280DD100F0FCF90AE01E4869
:10555000006838B91B480068C06AE16A884201D80F
:105560001848046019480068401C1849086008463B
:10557000006860641649E06A0968884202D91449E3
:10558000E06A0860E16A01EB8101124A02EB8100E6
:10559000211D00F025FE00F059FE0B48006868B19F
:1055A00008480068C06AE16A884207D24FF080501C
:1055B00009490860BFF34F8FBFF36F8F10BD000024
:1055C0003400002024000020400000205000002073
:1055D0003C000020E003002004ED00E008B500F0EE
:1055E0000BFE12480068E8B9114800F0CFFD1148E1
:1055F00000F0CCFD0E48104908600E480F490860C5
:1056000000200F4B0F4A102100900A2001F010F9E2
:10561000064908600846006820B10BA103480068ED
:1056200000F0D4FE00F012FE08BD0000680000206B
:10563000A4080020B80800206000002064000020BA
:10564000CC0800201C090020546D7251000000009D
:1056500010B516E000F0D0FD0C48C068C468201DED
:1056600000F067FD0A480068401E094908600948C3
:105670000068401E0749086000F0E8FD204600F081
:105680005FF8044800680028E4D110BD7C080020C1
:10569000340000203000002070B504460D46206C18
:1056A00070B1216CE0680144E160D4E902108842E5
:1056B00001D32168E1602846226CE168FAF7CDFE4B
:1056C00070BD2DE9F04104460F4615464FF0000825
:1056D000A66B206C48B9206800282CD1A06801F086
:1056E000F7FC80460020A06025E07DB93946226C99
:1056F0006068FAF7B2FE216C606808446060D4E923
:105700000101884217D32068606014E03946226C9A
:10571000E068FAF7A2FE216CE068411AE1602168B6
:10572000E068884203D2216CA068411AE160022D32
:1057300001D106B1761E701CA0634046BDE8F08121
:1057400010B5044694F8590030B9206B00F09CFD68
:10575000204600F099FD1AE094F85900012803D181
:10576000204600F091FD12E094F85900022801D182
:10577000012000E0002050B900BF502080F31188C4
:10578000BFF34F8FBFF36F8F00BF00BFFEE710BDA9
:105790000146084A126812680AB9012200E0002294
:1057A0000A600A6822B9034A1268D268106800E0E9
:1057B000002070476000002030B54FF47053174848
:1057C00000F007042CB1C01D20F00700134C041B8F
:1057D0001B1B0246124C22600024114D6C60D01835
:1057E000083820F007000F4C206000240D4D2D6874
:1057F0006C600C4D2D682C601146441A4C60094CAD
:1058000024680C60084D4C682C60084D4C682C6076
:105810004FF00044064D2C6030BD00007410002095
:1058200078000020800000208800002084000020F4
:105830009400002000BFFFF70BFF06480068012816
:10584000F9D94FF0805004490860BFF34F8FBFF380
:105850006F8FF0E7E003002004ED00E02DE9F04158
:1058600006460D4617469846069C0DB9246000E092
:105870002760E66325640121204601F049F884F899
:105880004C80BDE8F0812DE9F05F82460E469046DF
:105890009B460A9F0C9C4FEA8801A522206BFAF7D1
:1058A00021FEA8F10100216B01EB800929F0070915
:1058B00009F0070008B9012000E0002050B900BF3E
:1058C000502080F31188BFF34F8FBFF36F8F00BF5D
:1058D00000BFFEE786B1002507E0715D04F13400EA
:1058E0004155705D00B902E06D1C102DF5D300BF6D
:1058F00000214320015502E0002084F83400382FB5
:1059000000D33727E762E76400202065201D00F000
:105910004AFC04F1180000F046FC2461C7F138008D
:10592000A06164620020606584F858005A465146C0
:10593000484600F071FB20600B9808B10B9804609A
:10594000BDE8F09F10B5002407E004EB84010F4A86
:1059500002EB810000F01AFC641C382CF5D30C48D3
:1059600000F014FC0B4800F011FC0B4800F00EFC9A
:105970000A4800F00BFC0A4800F008FC04480949FA
:10598000086004480849086010BD0000E0030020DA
:105990004008002054080020680800207C080020EF
:1059A00090080020280000202C00002010B501469F
:1059B000164800E0006803688B42FBD30246436848
:1059C00013448B4204D143684C682344436001462E
:1059D0000A464B6813440468A34211D10C4C036877
:1059E0002468A34208D04B680468646823444B6071
:1059F00003681B680B6005E0054B1B680B6001E04A
:105A000003680B60884200D0016010BD7800002060
:105A1000800000202DE9F04104460D4616461F4641
:105A20004FF0000865602461B5420CD8F01BA169F5
:105A3000884202D34FF0010811E0211D0948006897
:105A400000F0B4FB0BE0BE4204D2BD4202D34FF0E3
:105A5000010804E0211D0448006800F0A7FB40464F
:105A6000BDE8F081640000206000002070B50546AC
:105A700000F0C2FBA86B08B9012400E0002400F08C
:105A8000E5FB204670BD70B5054600F0B5FBA86B80
:105A9000E96B884201D1012400E0002400F0D6FB2C
:105AA000204670BDF8B505460F461A480068C06824
:105AB000C468201D00F03DFB94F8280000F00400AD
:105AC000E8B1A06941192B463A462046FFF7A2FFEC
:105AD000D8B1002003462A4601460090204601F036
