:020000040800F2
:10000000807C0020610300089D1B0008051A000881
:10001000391B0008650B0008D72F000800000000FE
:10002000000000000000000000000000A90200081D
:10003000F914000800000000FD0200086922000811
:100040008503000885030008850300088503000870
:100050008503000885030008FD140008F915000851
:1000600021160008491600087116000885030008CB
:100070008503000885030008850300088503000840
:100080008503000885030008850300088503000830
:10009000690B00088503000885030008991600080D
:1000A00085030008F1220008850300088503000885
:1000B0004523000871230008A123000885030008D8
:1000C00085030008850300088503000885030008F0
:1000D00085030008092C0008850300088503000833
:1000E000251500088503000885030008850300081E
:1000F00061240008850300088503000885030008C3
:100100008503000885030008D12300088503000843
:100110008503000885030008012400083124000835
:10012000850300088503000885030008850300088F
:10013000850300088503000885030008850300087F
:10014000990B000885030008850300088503000853
:10015000850300088503000885030008850300085F
:10016000850300088503000885030008850300084F
:1001700085030008850300088503000800000000CF
:100180008503000885030008D92B000885030008B3
:10019000850300088503000885030008850300081F
:1001A00000000000000000008503000800F002F8D5
:1001B00000F06AF80AA090E8000C82448344AAF197
:1001C0000107DA4501D100F05FF8AFF2090EBAE895
:1001D0000F0013F0010F18BFFB1A43F0010318477B
:1001E00078820000988200000A444FF0000C10F85A
:1001F000013B13F0070408BF10F8014B1D1108BFA5
:1002000010F8015B641E05D010F8016B641E01F844
:10021000016BF9D113F0080F1EBF10F8014BAD1C94
:100220000C1B09D16D1E58BF01F801CBFAD505E0B2
:1002300014F8016B01F8016B6D1EF9D59142D6D30C
:10024000704700000023002400250026103A28BF34
:1002500078C1FBD8520728BF30C148BF0B60704738
:10026000752900F04781632900F0B38300207047AF
:100270001FB507F037FB9DE8030000F0C1FA00F05E
:100280008FFA1FBD10B510BD00F0FDFB1146FFF742
:10029000EFFF04F09DFF00F01BFC03B4FFF7F2FF3B
:1002A00003BC04F0EDFE00002A4B19680868B0E8B2
:1002B000F04F80F30988BFF36F8F4FF0000080F399
:1002C000118870470000000006480068006880F34D
:1002D000088862B661B6BFF34F8FBFF36F8F00DF40
:1002E00000BF00BF08ED00E0DFF80C00016841F43A
:1002F00070010160704700BF88ED00E0EFF30980F6
:10030000BFF36F8F134B1A681EF0100F08BF20ED5C
:10031000108A20E9F04F106008B44FF0500080F3CD
:100320001188BFF34F8FBFF36F8F06F0AFF94FF017
:10033000000080F3118808BC19680868B0E8F04F25
:100340001EF0100F08BFB0EC108A80F30988BFF3CD
:100350006F8F70472C020020EFF30580704700007C
:100360000C48016841F4700101600B4880470B485C
:100370000047FEE7FEE7FEE7FEE7FEE7FEE7FEE7F3
:10038000FEE7FEE7FEE7000005480649064A074B80
:100390007047000088ED00E089220008AD010008E8
:1003A00080730020807C00208078002080780020EE
:1003B000704770B5064600F007FA056806F10B00B5
:1003C00020F00704B4429CBF002070BD2B466A6831
:1003D000BAB11068A04210D304F1080188423CBFB2
:1003E0005068586007D35168101941601168091BA3
:1003F000016058601460101D70BD13465268002AD9
:10040000E7D12146284600F0E7F90028DED170BD8B
:100410000FB41CB5074B06AA7B44694600900598AB
:1004200000F0B5FA0020694600F0C4FA1CBC5DF883
:1004300014FB0000990500002DE9F0410E4604462A
:10044000002020622046E168884730B3252805D087
:10045000D4E901219047206A401CF2E7E168204678
:1004600000278847050018D0A5F14100192802D8B7
:1004700020354FF400673246294620462760FFF7B3
:10048000EFFE40B1012804D0F61D26F0070608361D
:10049000D8E7361DD6E72846DAE7206ABDE8F081BE
:1004A00070B50C460546012A05D02878800600D58F
:1004B000EA69002302E0012305E05B1C934202D2BB
:1004C000E05C0028F9D1A869E618C01AA861286A7A
:1004D000184428622846AFF3008004E0D5E90121E2
:1004E00014F8010B9047B442F8D32846AFF30080CC
:1004F00070BD00002DE9F041064600241068752902
:10050000314616A510D0AFF30080002802DA404231
:1005100013A507E031688A0701D512A502E0490753
:1005200004D511A5012401E0AFF3008000210A22C7
:1005300006F1240709E0B0FBF2FCB0FBF2F302FB8A
:100540001C00303078541846491C0028F3D123464B
:100550002A463046BDE8F04100F0BAB9000000007C
:100560002D0000002B0000002000000010B500202E
:1005700000F03BFAFFF786FEBDE81040012004F0D2
:100580007FBD40EA0103024630B59B0710D14FF012
:10059000013400E008C208C91D1B9D4315EAC41FB1
:1005A000F8D013F0FF0102F8011B0DD01B0AF8E789
:1005B00011F8013B002B02F8013B05D011F8013B7B
:1005C000002B02F8013BF3D130BD10B5431C02E013
:1005D00010F8011B71B18107FAD14FF0013202C846
:1005E0008C1A8C4314EAC211F9D0C01A0A0603D03F
:1005F000C01E10BDC01A10BD0A0401D0801E10BD5F
:100600000902FCD0401E10BD032A40F2308010F0D9
:10061000030C00F0158011F8013BBCF1020F62449D
:1006200098BF11F801CB00F8013B38BF11F8013B2E
:10063000A2F1040298BF00F801CB38BF00F8013BDB
:1006400011F0030300F02580083AC0F0088051F84B
:10065000043B083A51F804CBA0E80810F5E7121D56
:100660005CBF51F8043B40F8043BAFF30080D20775
:1006700024BF11F8013B11F801CB48BF11F8012B41
:1006800024BF00F8013B00F801CB48BF00F8012B64
:10069000704710B5203AC0F00B80B1E81850203AEE
:1006A000A0E81850B1E81850A0E81850BFF4F5AF12
:1006B0005FEA027C24BFB1E81850A0E8185044BF9C
:1006C00018C918C0BDE810405FEA827C24BF51F809
:1006D000043B40F8043B08BF7047D20728BF31F8FD
:1006E000023B48BF11F8012B28BF20F8023B48BF4E
:1006F00000F8012B704702F0FF0343EA032242EAAD
:10070000024200F002B84FF000020429C0F012804B
:1007100010F0030C00F01B80CCF1040CBCF1020FB4
:1007200018BF00F8012BA8BF20F8022BA1EB0C0189
:1007300000F00DB85FEAC17C24BF00F8012B00F87F
:10074000012B48BF00F8012B70474FF0000200B5A5
:10075000134694469646203922BFA0E80C50A0E8E4
:100760000C50B1F12001BFF4F7AF090728BFA0E892
:100770000C5048BF0CC05DF804EB890028BF40F85E
:10078000042B08BF704748BF20F8022B11F0804FA0
:1007900018BF00F8012B7047704770477047000082
:1007A00070B5064C7C44064D7D4403E0206820442F
:1007B0008047241DAC42F9D170BD0000D07C000000
:1007C000F07C00007047000000487047287300204C
:1007D000704770477047704738B504460A46002096
:1007E0006946AFF30080002808BF38BD0246009973
:1007F000204600F009F9012038BD012000F03CB985
:10080000F8B5AFF30080054600200C46102000BF6D
:100810000646A819A0420DD9324669460020AFF31A
:100820000080070008BF00F027F90098A04218BF19
:100830000546C419FFF7C8FF05600746F01D20F004
:1008400007004619284600F00AF8B44208BFF8BD70
:10085000A21B31463868BDE8F84000F0D5B8002149
:100860000160C0E9011070471020704770B5044660
:10087000051FFFF7A9FF0068002C14BF446870BD76
:10088000002C18BFAC423CBF20466468F8D3016816
:100890000A18AA4218BF456003D12A6805461144C8
:1008A000016028684119A1421CBF6C6070BD61687D
:1008B000696021680844286070BD10B500F0A0F898
:1008C000006810BD10B5044600F09AF8046010BD31
:1008D0002DE9F0470D4699469246044600F124085A
:1008E0000168880604D5E06921F01001216000E06C
:1008F0000120A84201DD471B00E00027A1697A1909
:1009000002EB0900081AA0612078C00602D4204634
:10091000AFF30080002608E0D4E901211AF80600B0
:100920009047206A401C761C20624E45F4DB2078FC
:10093000C0060AD52046AFF3008006E0D4E90121C5
:1009400030209047206A401C2062381EA7F1010722
:10095000F4DC07E0D4E9012118F805009047206A8B
:10096000401C2062281EA5F10105F3DC2046AFF3F0
:1009700000802078000602D50220BDE8F087012023
:10098000FBE7000001694A1C02610878704700B566
:100990008FB0CDE901310021059105497944CDE9B8
:1009A000031011466846FFF747FD0FB000BD000079
:1009B000E5FFFFFF0A6802F8010B0A60704710B5F7
:1009C000436913B1AFF3008001E0FFF769FD012037
:1009D00010BD127800F124010A7000224A70012231
:1009E000EDE711684FF0FF32E9E710B500F02CF8A1
:1009F000BDE8104000F022B8004870472073002086
:100A00000048704720730020034640688C46002849
:100A100018BF88423CBF03464068F8D318681844A2
:100A2000884207D00CF1030020F00700001D411A96
:100A3000521A0146081D0A60FFF718BF002801D0AE
:100A400004F01EBB7047000010B5002102A000F0AA
:100A500048F8012010BD0000534947414252543A22
:100A60002041626E6F726D616C207465726D696E8B
:100A70006174696F6E00000010B500F04BF8BDE8BE
:100A80001040FFF7DBBF7546FFF7B6FFAE46050027
:100A90006946534620F00700854618B020B5FFF799
:100AA00073FCBDE820404FF000064FF000074FF008
:100AB00000084FF0000B21F00701AC46ACE8C0097C
:100AC000ACE8C009ACE8C009ACE8C0098D46704785
:100AD00010B50446AFF300802046BDE81040FFF794
:100AE000DCBB70B505460C460A2000E06D1C04F026
:100AF000C9FA35B128780028F8D102E0641C04F066
:100B0000C1FA14B120780028F8D1BDE870400A205D
:100B100004F0B8BA10B5012805D0002103A0FFF7F2
:100B2000E0FF012010BD09A1F8E70000534947523A
:100B3000544D454D3A204F7574206F6620686561AD
:100B400070206D656D6F7279000000003A20486575
:100B50006170206D656D6F727920636F7272757050
:100B60007465640000BFFEE710B500BF5021EFF3CD
:100B7000118081F31188BFF34F8FBFF36F8F00BFD8
:100B80000446044803F03CFE204680F3118800BF71
:100B900010BD0000100E002010B500BF5021EFF373
:100BA000118081F31188BFF34F8FBFF36F8F00BFA8
:100BB0000446044803F024FE204680F3118800BF59
:100BC00010BD00001C0E0020B1F5007F3AD00FDCF4
:100BD000202928D006DC01291CD004291DD0082991
:100BE00040D11DE0402921D0B1F5807F3AD126E0E7
:100BF000B1F5004F31D006DCB1F5806F25D0B1F5ED
:100C0000006F2FD124E0B1F5803F12D0B1F5003F45
:100C100028D111E0154A826025E00822C26022E056
:100C20001022C2601FE0082202611CE01022026153
:100C300019E00822426016E01022426013E004220C
:100C4000426010E0042242600DE0042242600AE0AB
:100C5000002282610422426005E0002282610422B7
:100C6000426000E000BF00BF7047000001010100CA
:100C700010B50021837A012202FA03F13D4A12687D
:100C800042F001023B4B1A603A4A1C3212688A4316
:100C9000384B1C331A60027BCAB9364A0C321268D0
:100CA0008A43344B0C331A604288C38842EA0343B8
:100CB000304A4032847A42F834300288838842EAEB
:100CC00003432C4A4032847A02EBC4025360027B15
:100CD000012A19D1274A0C3212680A43254B0C33DA
:100CE0001A604288038842EA0343224A4032847AE7
:100CF00042F83430C288838842EA03431D4A4032B6
:100D0000847A02EBC4025360C27A3AB9194A121DBE
:100D100012688A43174B1B1D1A6006E0154A121D04
:100D200012680A43134B1B1D1A60028932B9114A1B
:100D3000143212688A430F4B14331A600289012A55
:100D400006D10C4A143212680A430A4B14331A6053
:100D5000427B012A06D1074A1C3212680A43054B1E
:100D60001C331A60034A126822F00102014B1A6018
:100D700010BD00000066004070B504460D46002618
:100D800060692840002871D0B5F5807F5CD010DC08
:100D9000082D35D006DC012D20D0022D24D0042DC5
:100DA00072D127E0102D31D0202D35D0402D6BD1C0
:100DB00038E0B5F5004F60D009DCB5F5007F49D0CB
:100DC000B5F5806F4CD0B5F5006F5DD14FE0B5F54E
:100DD000803F2DD0B5F5003F56D12FE0A0682D49BA
:100DE00000F01CFA064651E0E068032100F016FA14
:100DF00006464BE0E068082100F010FA064645E0A0
:100E0000E068102100F00AFA06463FE0206903215D
:100E100000F004FA064639E02069082100F0FEF9E6
:100E2000064633E02069102100F0F8F906462DE06F
:100E30006068082100F0F2F9064627E0606810219A
:100E400000F0ECF9064621E0A069012100F0E6F986
:100E500006461BE0A069022100F0E0F9064615E015
:100E6000A069042100F0DAF906460FE00FE0A0695E
:100E7000702100F0D3F9064608E06068042100F014
:100E8000CDF9064602E0FFE7002600BF00E000269D
:100E9000304670BD010101001AB143690B43436143
:100EA00002E043698B434361704730B5024600203E
:100EB0000023146824F002041460146844F0010450
:100EC000146000E05B1C546804F001041CB94FF688
:100ED000FF74A342F6D1546804F001040CB9002059
:100EE0006CE08C79012C04D1146844F08004146007
:100EF00003E0146824F080041460CC79012C04D140
:100F0000146844F04004146003E0146824F04004C2
:100F100014600C7A012C04D1146844F0200414608D
:100F200003E0146824F0200414604C7A012C04D1EE
:100F3000146844F01004146003E0146824F01004F2
:100F400014608C7A012C04D1146844F008041460F5
:100F500003E0146824F008041460CC7A012C04D156
:100F6000146844F00404146003E0146824F00404DA
:100F700014608C78A407CD7844EA05640D7944EABE
:100F800005444D7944EA05540D886D1E2C43D46107
:100F9000146824F001041460002300E05B1C546812
:100FA00004F001041CB14FF6FF74A342F6D154685B
:100FB00004F001040CB1002000E0012030BD10B5A8
:100FC00000F5D87303EB01131B6803F004031372DD
:100FD000137A53B900F5D87303EB01131B6840F281
:100FE000FF7404EA5353136009E000F5D87303EB70
:100FF00001131B686FF0604404EAD303536000F5EB
:10100000D87303EB01131B6803F00203537200F55E
:10101000D87303EB01135B6803F00F03937200F5C1
:10102000D87303EB01135B681B0AD37400F5D87304
:1010300003EB01139B68D37200F5D87303EB011324
:101040009B681C0A147300F5D87303EB01139B68AB
:101050001C0C547300F5D87303EB01139B681B0E33
:10106000937300F5D87303EB0113DB68D37300F5BA
:10107000D87303EB0113DB681C0A147400F5D873F2
:1010800003EB0113DB681C0C547400F5D87303EBFD
:101090000113DB681B0E937421B9C36843F020036E
:1010A000C36003E0036943F02003036110BD10B582
:1010B00002460020936803F08063B3F1806F00D193
:1010C00010E0936803F00063B3F1006F01D10120D9
:1010D00008E0936803F08053B3F1805F01D10220F0
:1010E00000E00420042874D002F5C07303EB001361
:1010F0001B6803F0010402F5C07303EB00131C60CE
:101100000B7A7BB94B7A0C8843EA445302F5C074DE
:1011100004EB00142468234302F5C07404EB0014AC
:10112000236010E00B7A4C6843EAC4034C7A2343F3
:1011300002F5C07404EB00142468234302F5C07464
:1011400004EB001423608B7A03F00F038B7202F51B
:10115000C07303EB00135B6823F00F0402F5C07348
:1011600003EB00135C6002F5C07303EB00135B68D4
:101170008C7A234302F5C07404EB001463608B7B0C
:101180001C064B7B44EA03440B7B44EA0323CC7AE2
:10119000234302F5C07404EB0014A3608B7C1C068F
:1011A0004B7C44EA03440B7C44EA0323CC7B23437B
:1011B00002F5C07404EB0014E36002F5C07303EBA6
:1011C00000131B6843F0010402F5C07303EB001326
:1011D0001C6010BDC82005F001F80E4802F044FC68
:1011E00016E00D480078401C0B490870094802F0D1
:1011F000ABFE084802F074FF064802F0DFFC054829
:1012000002F09CFD034802F0C7FC022004F0E6FF58
:10121000E7E70000F40A0020140200200246002044
:1012200002EA01030BB1012000E00020704700003A
:1012300019480178194802780078401C174B18703B
:10124000174881540078552803D0002019460870AB
:101250007047124800780B2800DAF9E71048407808
:10126000522802D0532810D107E00E480C49891C9F
:101270000A6802604968416008E00B480849891C17
:101280000A6802604968416000E000BF00BF0020BA
:101290000249087000BFDBE728020020040000209C
:1012A000EC030020060000200E0000200246094B3F
:1012B0009A4201D2084801E00648103801F0005374
:1012C0001BB1064B0B40C36002E0044B0B40836034
:1012D0007047000010640240006002407D0F7D0FE7
:1012E00021B1026842F00102026003E0026822F0CC
:1012F0000102026070470000016821F001010160F5
:101300000021016041608160C16001612121416172
:101310004A49884204D13D21484A103A91608CE004
:1013200046491831884205D14FF47461434A103A56
:10133000916082E041493031884205D14FF4741107
:101340003E4A103A916078E03C494831884205D1E4
:101350004FF07461394A103A91606EE0374960315C
:10136000884204D13649354A103AD16065E03349A4
:101370007831884204D13349304A103AD1605CE078
:101380002E499031884204D12F492C4A103AD1601D
:1013900053E02A49A831884205D14FF03D51274AF0
:1013A000103AD16049E02949884204D13D21274AB9
:1013B000083A116041E025491831884205D14FF4BF
:1013C0007461224A083A116037E02049303188427E
:1013D00005D14FF474111D4A083A11602DE01B49E4
:1013E0004831884205D14FF07461184A083A1160BB
:1013F00023E016496031884204D11149134A121F73
:1014000011601AE011497831884204D10D490F4A20
:10141000121F116011E00D499031884204D10A4930
:101420000A4A121F116008E00849A831884204D115
:101430004FF03D51054A121F116070471060024085
:101440003D000020400F002000003D2010640240BD
:1014500021B1026842F48022026003E0026822F4B3
:1014600080220260704722B1036843F400230360C6
:1014700003E0036823F40023036001617047014621
:10148000486880B27047014600200A6802F40022D2
:101490000AB1012000E000207047000010B50022D2
:1014A0000268134B1A40CC680B6823434C692343F2
:1014B0008C692343CC6923430C6A23434C6A23433E
:1014C0008C6A23434C6B23438C6B23431A43026087
:1014D000426922F00702D1E90B3423431A434261E7
:1014E0000B6943604B6883608B68C36010BD00006C
:1014F0003F801CF0416070477047000010B500BF8E
:10150000012000F023F940B10548006810B10449FA
:1015100008688047012000F013F900BF10BD0000EB
:10152000E071002010B500BF4FF4806000F00EF9AC
:1015300048B13048806A10B12E49886A80474FF41C
:10154000806000F0FDF800BF00BF4FF4006000F0C5
:10155000FDF848B12748C06A10B12649C86A8047DB
:101560004FF4006000F0ECF800BF00BF4FF4805073
:1015700000F0ECF848B11F48006B10B11D49086B32
:1015800080474FF4805000F0DBF800BF00BF4FF4FD
:10159000005000F0DBF848B11648406B10B1154917
:1015A000486B80474FF4005000F0CAF800BF00BFFE
:1015B0004FF4804000F0CAF848B10E48806B10B17B
:1015C0000C49886B80474FF4804000F0B9F800BFA9
:1015D00000BF4FF4004000F0B9F848B10548C06BB7
:1015E00010B10449C86B80474FF4004000F0A8F8E0
:1015F00000BF10BDE071002010B500BF022000F058
:10160000A5F840B10548406810B1044948688047D2
:10161000022000F095F800BF10BD0000E07100202E
:1016200010B500BF042000F091F840B10548806873
:1016300010B1044988688047042000F081F800BF99
:1016400010BD0000E071002010B500BF082000F0C0
:101650007DF840B10548C06810B10449C8688047AA
:10166000082000F06DF800BF10BD0000E071002000
:1016700010B500BF102000F069F840B105480069BE
:1016800010B1044908698047102000F059F800BFE4
:1016900010BD0000E071002010B500BF202000F058
:1016A00055F840B12548406910B124494869804740
:1016B000202000F045F800BF00BF402000F046F8B1
:1016C00040B11E48806910B11C498869804740209C
:1016D00000F036F800BF00BF802000F037F840B1BE
:1016E0001648C06910B11549C8698047802000F0CC
:1016F00027F800BF00BF4FF4807000F027F848B112
:101700000E48006A10B10D49086A80474FF4807096
:1017100000F016F800BF00BF4FF4007000F016F89C
:1017200048B10648406A10B10449486A80474FF4FE
:10173000007000F005F800BF10BD0000E07100204F
:101740000149086070470000143C01400146002038
:10175000034A12680A400AB1012000E000207047E5
:10176000143C014000B50346034901EB031188898D
:1017700000F004F800BD00003079000801460022A6
:1017800002E04910501C82B20129FADCD0B2704745
:10179000F0B50A4600210023002400BF3DE00125EA
:1017A00005FA01F3156805EA03049C4234D1056883
:1017B0004F000326BE40B543056015794E00B54085
:1017C0000668354305601579012D02D01579022D83
:1017D00016D185684F000326BE40B5438560557914
:1017E0004E00B540866835438560456801268E40C9
:1017F000B5434560456896798E40B6B2354345603D
:10180000C5684F000326BE40B543C560D5794E007C
:10181000B540C6683543C560491C1029BFD3F0BD2B
:10182000F0B5002300244D07ED0E02FA05F3CE10AB
:1018300000F1200555F826504E07F70E0F26BE4042
:10184000B543CF1000F1200646F82750CE1000F126
:10185000200555F8265045EA0304CE1000F1200576
:1018600045F82640F0BD4183704701837047000072
:101870002DE9FC4704460E469246564800EB0410FC
:1018800000685549884201D101255BE0514800EBD1
:10189000041000685149884201D1022552E04D48A8
:1018A00000EB041000684E49884201D1042549E04C
:1018B000484800EB041000684A49884201D10825D5
:1018C00040E0444800EB041000684749884201D1D9
:1018D000102537E03F4800EB041000684349884278
:1018E00001D120252EE03B4800EB04100068404960
:1018F000884201D1402525E0364800EB04100068FD
:101900003C49884201D180251CE0324800EB04109C
:1019100000683949884201D1851513E02D4800EB54
:10192000041000683549884201D145150AE029486C
:1019300000EB041000683249884201D1051501E02E
:10194000BDE8FC8716B90027B84628E0012E02D171
:101950000027B04623E0022E02D10027B0461EE049
:10196000032E03D103274FF0000818E0052E05D100
:1019700001274FF000094FF0000810E0062E05D1B6
:1019800001274FF001094FF0000808E0072E05D1AC
:1019900002274FF000094FF0000800E0D0E70D48A3
:1019A00000EB0410808900908DF804708DF805A07C
:1019B0008DF806908DF807800121284600F0C4F9C3
:1019C000044901EB041108686946FFF7E1FE00BF16
:1019D000B6E7000030790008000002400004024031
:1019E00000080240000C02400010024000140240B7
:1019F00000180240001C0240002002400024024067
:101A00000028024000BFFEE705F084FA4249086062
:101A100040F6B83004F0E2FB002001F075FB6420D2
:101A200004F0DCFB022001F06FFB642004F0D6FB25
:101A3000032001F069FB6EE03848007878B100209F
:101A400001F038FB0A2004F0C9FB022001F032FB50
:101A50000A2004F0C3FB032001F02CFB14E02F4804
:101A6000007888B12E48007870B1002001F04CFB5E
:101A70000A2004F0B3FB022001F046FB0A2004F028
:101A8000ADFB032001F040FB264890F8280020B170
:101A900001280AD002283AD10FE02349234802F056
:101AA0009FFC00202249086031E022491F4802F0D3
:101AB00097FC00201E49086029E01D4800680328A3
:101AC0000BD11B480068401C00EB4000194A02EB98
:101AD000C001164802F084FC18E013E014480068C6
:101AE000401C00EB4000134A02EBC0010F4802F01B
:101AF00077FC4FF42F7004F071FB0D480068401C18
:101B00000B4908600A4800680328E7DB00BF00BFF4
:101B10000A2004F063FB8FE7DC010020D9010020DC
:101B2000D8010020D40D002038000020E807002054
:101B3000E00100209800002000BFFEE7144801F0FB
:101B400053FF01F00BFBC82004F048FB1FE01148D5
:101B50000078401C0F4908700D4801F07EFF0C48CA
:101B6000406BB0F90200C82804DD04210A48FFF7E1
:101B70007CFE09E00648406BB0F90200C82803DA91
:101B800004210548FFF76FFE0A2004F027FBDEE77B
:101B9000D40D0020200200200020024070470000E9
:101BA00070B5002100230F22C4781CB3174C2468A1
:101BB00004F4E064C4F5E064C4F30721C1F1040453
:101BC000E3B20A4144789C40E1B284781440214356
:101BD0000C07210E0E4C05786155047804F01F05A2
:101BE0000124AC4005786D11AD0005F1E025C5F884
:101BF000004109E0047804F01F050124AC40054DC4
:101C00000678761145F8264070BD00000CED00E026
:101C100000E400E080E100E002490143024A116073
:101C2000704700000000FA050CED00E02DE9F047D8
:101C300004460D461646B02C09DA3C4800EB041069
:101C4000406820B1394800EB0410807B10B90020B7
:101C5000BDE8F08735B12EB105FB06F034490968BF
:101C6000884201D90020F3E7002207212046FFF730
:101C7000FFFD204600F03CFC81462046FFF772FD48
:101C800082462A4901EB04114A4608685146FFF78B
:101C9000C7FD2F4626480068B0FBF5F0B0FBF6F80C
:101CA000224800EB04104068224988421CD01F489B
:101CB00000EB041040682049884215D01B4800EB17
:101CC000041040681D4988420ED0184800EB0410EB
:101CD00040681B49884207D0144800EB0410406854
:101CE0001849884200D07F08104901EB0411486868
:101CF000002100F0E2FBDFF834C00CEB041C9CF880
:101D00000E30A7F1010C1FFA8CF2A8F1010C1FFA9A
:101D10008CF1DFF818C00CEB041CDCF8040000F0B8
:101D20001FFE024800EB0410807B91E73079000829
:101D3000D4020020000001400004014000400140A6
:101D4000004401400048014029B1064A126802439C
:101D5000044B1A6004E0034A12688243014B1A6084
:101D6000704700003038024029B1064A1268024329
:101D7000044B1A6004E0034A12688243014B1A6064
:101D8000704700004038024029B1064A12680243F9
:101D9000044B1A6004E0034A12688243014B1A6044
:101DA000704700002038024029B1064A12680243F9
:101DB000044B1A6004E0034A12688243014B1A6024
:101DC000704700004438024029B1064A12680243B5
:101DD000044B1A6004E0034A12688243014B1A6004
:101DE0007047000024380240F0B500210022002492
:101DF000022500260223324F3F6807F00C0121B173
:101E0000042905D0082937D105E02E4F076036E0B8
:101E10002D4F076033E02A4F3F1F3F68C7F38056BE
:101E2000274F3F1F3F6807F03F036EB1264FB7FBB8
:101E3000F3F7DFF88CC0ACF1040CDCF800C0CCF395
:101E4000881C07FB0CF40CE01E4FB7FBF3F7DFF820
:101E500070C0ACF1040CDCF800C0CCF3881C07FBAC
:101E60000CF4174F3F1F3F68C7F301477F1C7D00ED
:101E7000B4FBF5F7076002E0124F076000BF00BF38
:101E80000F4F3F6807F0F0010909104F7A5C0768AF
:101E9000D74047600A4F3F6807F4E051890A0B4F6B
:101EA0007A5C4768D7408760054F3F6807F4604118
:101EB000490B064F7A5C4768D740C760F0BD000009
:101EC000083802400024F400001BB700C4020020C0
:101ED00070B590B004460E46154601214A48FFF7FA
:101EE00033FF01211020FFF75FFF01211020FFF7D2
:101EF0006BFF00211020FFF767FF072211464348C0
:101F0000FFF78EFC80200E9002208DF83C00002010
:101F10008DF83E0003208DF83D0000208DF83F0035
:101F20000EA93A48FFF734FC394800F01DFF394844
:101F30000A900020ADF82C00ADF82E004FF4806020
:101F4000ADF830000420ADF832000020ADF83400C8
:101F50000AA92F4800F0D0FF012240212C4800F0B0
:101F6000F9FE10212A4800F0D1FE012240F224415E
:101F7000274800F09BFF0121254800F0DFFE2520C7
:101F80008DF83C0008208DF83D0000208DF83E00C3
:101F900001208DF83F000FA8FFF702FE1E48FFF753
:101FA000ABF94FF0006001901948001D02900394B6
:101FB00000200490059506904FF480600790002063
:101FC000089009904FF480700A904FF440300B90C5
:101FD00000200C900D900E900F9001A90E48FFF775
:101FE0005DFA002231460C48FFF73DFA01210A480C
:101FF000FFF72EFA00210848FFF772F90121064881
:10200000FFF76EF910B070BD0200400000040240FE
:1020100000100140A086010040640240074802F021
:10202000CFFB09E0064804F0BDF9044802F03EFC8D
:102030004FF47A7004F0D2F8F4E7000002000020B8
:10204000FC0300200CB5002001900090414800687E
:1020500040F480303F49086000BF3E48006800F40B
:10206000003000900198401C0190009818B9019828
:10207000B0F5A04FF1D13748006800F4003010B13E
:102080000120009001E0002000900098012860D11C
:1020900030484030006840F080502E4940310860A0
:1020A0002D48006840F440402B490860294808301A
:1020B00000682849083108600846006840F400407C
:1020C00008600846006840F4A05008602348091FD3
:1020D0000860081F006840F08070091F086000BF9A
:1020E0001C48006800F000700028F9D01A48006809
:1020F00040F480301849086000BF1748406800F479
:1021000080300028F9D01448006840F400301249AB
:10211000086000BF1048406800F400300028F9D083
:1021200040F205700E4908600A480830006820F047
:1021300003000849083108600846006840F00200C2
:10214000086000BF03480830006800F00C00082851
:10215000F8D10CBD0038024000700040062D400848
:10216000003C02401CB5044603F02EFF002204216F
:10217000022004F087FB1949086019480221002356
:102180004022CDE9001017A11A4804F083FE1A4836
:10219000052100234FF40072CDE9001017A11B4860
:1021A00004F078FE1A4804210023CA01CDE900108A
:1021B00018A11B4804F06EFE1A48062100234FF4B4
:1021C0000072CDE9001018A11B4804F063FE1B4803
:1021D000006804F031F803F021FF1CBD340000203A
:1021E0002000002052544F5373797374656D5F540F
:1021F00061736B001D200008240000204B696E6590
:102200006D61746963735F7461736B00091A000810
:1022100030000020436861737369735461736B000D
:10222000D51100082C0000204D6573736167655F50
:102230007461736B000000003D1B00081C0000204F
:10224000042808D14FF0E021096941F004014FF062
:10225000E022116107E04FF0E021096921F004015B
:102260004FF0E0221161704710B504F043FE0128E1
:1022700002D004F0EDFA04E002480068401C014975
:10228000086010BDB002002010B51548006840F489
:102290007000134908601348006840F001001149BC
:1022A000086000200F49083108600E4800680E4998
:1022B00008400C4908600D48091D0860081F0068A7
:1022C00020F48020091F0860002006490C310860B6
:1022D000FFF7B8FE4FF0006001498039086010BD7B
:1022E00088ED00E000380240FFFFF6FE10300024C9
:1022F00010B500BF0121104800F092F948B10F4815
:10230000006810B10D490868804701210A4800F0B3
:10231000D1F800BF00BF0121094800F081F948B1A0
:102320000648406A10B10549486A804701210448BF
:1023300000F0C0F800BF10BD000001402072002076
:102340000044014010B500BF0121880700F068F982
:1023500048B10648406810B10449486880470121E7
:10236000880700F0A7F800BF10BD00002072002011
:1023700010B500BF0121084800F052F948B10748E4
:10238000806810B10549886880470121024800F043
:1023900091F800BF10BD0000000400402072002032
:1023A00010B500BF0121084800F03AF948B10748CC
:1023B000C06810B10549C86880470121024800F093
:1023C00079F800BF10BD0000000800402072002016
:1023D00010B500BF0121084800F022F948B10748B4
:1023E000006910B10549086980470121024800F0E1
:1023F00061F800BF10BD0000000C004020720020FA
:1024000010B500BF0121084800F00AF948B107489B
:10241000406910B10549486980470121024800F030
:1024200049F800BF10BD00000010004020720020DD
:1024300010B500BF0121084800F0F2F848B1074884
:10244000806910B10549886980470121024800F080
:1024500031F800BF10BD00000014004020720020C1
:1024600010B500BF0121104800F0DAF848B10F485C
:10247000C06910B10D49C869804701210A4800F0C0
:1024800019F800BF00BF0121094800F0C9F848B1A0
:102490000648006B10B10549086B804701210448CC
:1024A00000F008F800BF10BD0004014020720020B9
:1024B000001C0040CA430282704721B1028842F0EA
:1024C0000102028004E002884FF6FE731A40028087
:1024D000704731B1B0F8442042F40042A0F84420E3
:1024E00005E0B0F84420C2F30E02A0F84420704783
:1024F000024600233C4800EB021041683B48814201
:1025000028D0B1F1804F25D03948814222D03948B6
:1025100081421FD0384881421CD03848814219D0AE
:102520003748814216D03748814213D0364881421D
:1025300010D0364881420DD0354881420AD0354806
:10254000814207D03448814204D03448814201D0CE
:102550000020704700BF2548814200D1012300BF01
:1025600000BFB1F1804F00D1012300BF00BF204860
:10257000814200D1022300BF00BF1E48814200D12A
:10258000022300BF00BF1C48814200D1022300BFCC
:1025900000BF1C48814200D1032300BF00BF1A487E
:1025A000814200D1032300BF00BF1848814200D1FF
:1025B000032300BF00BF1648814200D1032300BFA0
:1025C00000BF1448814200D1092300BF00BF124858
:1025D000814200D1092300BF00BF1048814200D1D1
:1025E000092300BF1846B4E7307900080000014015
:1025F0000004004000080040000C004000100040B3
:10260000001400400004014000400140004401402B
:102610000048014000180040001C0040002000401D
:1026200030B50246002000230024158A05EA010384
:10263000958905EA010413B10CB1012000E00020E6
:1026400030BD000070B5002400220023058C4FF639
:10265000FE7635400584028C8388048B4FF68F7597
:102660002C40B51E2C400D882C43751E2A408D89A8
:102670002A434D882A43104DA84202D00F4DA8424C
:1026800013D14FF6F7752A40CD892A434FF6FB75D3
:102690002A408D882A434FF6FF652B404FF6FF55A1
:1026A0002B400D8A2B434D8A2B43838004838D68F6
:1026B0004563028470BD0000000001400004014039
:1026C0000A460021018B4FF6F7731940114301832D
:1026D0007047000070B5002400220023058C4FF6DF
:1026E000EF7635400584028C8388048B48F6FF75AD
:1026F0002C404FF6FF452C400D884FF6FF7606EA3A
:1027000005252C434FF6DF752A408D8906EA05150D
:102710002A434D8806EA05152A43154DA84202D0E2
:10272000144DA8421DD14FF67F752A40CD894FF632
:10273000FF7606EA05152A434FF6BF752A408D88B5
:1027400006EA05152A434FF6FF352B404FF2FF7579
:102750002B400D8A06EA85052B434D8A06EA85053E
:102760002B43838004838D688563028470BD0000E1
:1027700000000140000401400A460021018B4FF295
:10278000FF7319404FF6FF7303EA022319430183D5
:102790007047000070B5002400220023058C4FF61E
:1027A000FF6635400584028C8388848B4FF68F75D5
:1027B0002C404FF6FC752C400D882C434FF6FF55EE
:1027C0002A408D894FF6FF7606EA05252A434D8873
:1027D00006EA05252A43154DA84202D0144DA84209
:1027E0001DD14FF2FF752A40CD894FF6FF7606EADC
:1027F00005252A434FF6FF352A408D8806EA052530
:102800002A434EF6FF752B404DF6FF752B400D8A7F
:1028100006EA05152B434D8A06EA05152B438380EE
:1028200084838D68C563028470BD00000000014090
:10283000000401400A460021818B4FF6F7731940CE
:10284000114381837047000070B5002200230024EB
:10285000058C4EF6FF7635400584038C8488828B88
:1028600048F6FF752A404FF6FF452A400D884FF67F
:10287000FF7606EA05252A434DF6FF752B408D8924
:1028800006EA05352B434D8806EA05352B430A4DEC
:10289000A84202D0094DA84208D14BF6FF752C4042
:1028A0000D8A4FF6FF7606EA85152C4384808283D5
:1028B0008D680564038470BD000001400004014080
:1028C0000A460021818B4FF2FF7319404FF6FF73C8
:1028D00003EA022319438183704700000022028823
:1028E000184B98420ED0184B98420BD0B0F1804F45
:1028F00008D0164B984205D0154B984202D0154B84
:10290000984204D14FF68F731A404B881A43124BEA
:10291000984207D0114B984204D04FF6FF431A401B
:102920000B891A4302804B68C3620B880385054BF1
:10293000984202D0044B984201D18B7A038601233E
:102940008382704700000140000401400004004001
:1029500000080040000C004000100040001400403F
:10296000F0B589B004460D4616461F4645488442D8
:1029700028D0B4F1804F25D04348844222D0434828
:1029800084421FD0424884421CD04248844219D01D
:102990004148844216D04148844213D04048844282
:1029A00010D0404884420DD03F4884420AD03F486E
:1029B000844207D03E48844204D03E48844201D03D
:1029C00009B0F0BD0121204600F076F80795ADF87A
:1029D00018600020ADF82000ADF81A0006A92046C6
:1029E000FFF77CFF7020ADF804000120ADF8060071
:1029F0000220ADF81000012F06D0022F0DD0032FBA
:102A000014D0042F24D11AE001A92046FFF71AFEA2
:102A100008212046FFF754FE1AE001A92046FFF7DF
:102A200059FE08212046FFF7A7FE11E001A9204624
:102A3000FFF7B0FE08212046FFF7FCFE08E001A9E1
:102A40002046FFF701FF08212046FFF739FF00BFAE
:102A500000BF01212046FFF730FD0A4884420BD019
:102A60000E48844208D00E48844205D00D48844266
:102A700002D00D48844203D101212046FFF729FDF1
:102A800000BF9DE700000140000400400008004036
:102A9000000C004000100040001400400004014001
:102AA000004001400044014000480140001800403F
:102AB000001C00400020004070B504460D46394817
:102AC000844204D129460120FFF76EF969E0B4F190
:102AD000804F04D129460120FFF746F961E03248D2
:102AE000844204D129460220FFF73EF959E02F48DD
:102AF000844204D129460420FFF736F951E02C48DE
:102B0000844204D129460820FFF72EF949E02948DC
:102B1000844204D129461020FFF726F941E02648D7
:102B2000844204D129462020FFF71EF939E02348CA
:102B3000844204D129460220FFF736F931E02048CB
:102B4000844205D129464FF48030FFF72DF928E063
:102B50001C48844205D129464FF40030FFF724F980
:102B60001FE01948844205D129464FF48020FFF721
:102B70001BF916E01548844204D129464020FFF78E
:102B8000F3F80EE01248844204D129468020FFF772
:102B9000EBF806E00F48844203D129468015FFF781
:102BA000E3F870BD00000140000400400008004050
:102BB000000C0040001000400014004000040140E0
:102BC000004001400044014000480140001800401E
:102BD000001C00400020004010B500BF5021EFF362
:102BE000118081F31188BFF34F8FBFF36F8F00BF48
:102BF0000446044800F0A6FE204680F3118800BF7A
:102C000010BD00003C0E002010B500BF5021EFF3B6
:102C1000118081F31188BFF34F8FBFF36F8F00BF17
:102C2000044640F22551334800F016F918B13148F6
:102C300000F0CCF959E040F224412E4800F00CF9A4
:102C4000002852D02B4800F0C1F92B48FEF71BFC9E
:102C500028BB00212848FEF743FB2748FEF70FFC5E
:102C6000C0F124002549088024212348FEF742FCB6
:102C70002148006840F400201F49086020491E4890
:102C8000FEF714FB01211C48FEF72AFB1B480088B5
:102C900012282AD11B491C4800F09FF925E0002189
:102CA0001548FEF71DFB1448FEF7E9FBC0F12400B0
:102CB0001249088024211048FEF71CFC0E480068C9
:102CC00020F400200C4908600D490B48FEF7EEFA8D
:102CD00001210948FEF704FB08480088122804D1A6
:102CE00008490948243000F078F900BF84F31188BE
:102CF00000BF10BD0010014040640240E802002007
:102D000000003010C0720020D672002001F4007262
:102D1000B2F5007F00D100BFCA430280704710B5F2
:102D20000022002340F66A14A14200D100BF0A121B
:102D300001249440A3B2DC43048010BD21B18289F8
:102D400042F40052828104E082894DF6FF731A40FA
:102D5000828170471AB1838A0B43838202E0838A9F
:102D60008B4383827047000010B50446324884428A
:102D700008D101211020FFF727F800211020FFF7CC
:102D800023F857E02D48844209D101214804FEF779
:102D9000FBFF00214FF40030FEF7F6FF4AE0284821
:102DA000844209D101218804FEF7EEFF00214FF48F
:102DB0008020FEF7E9FF3DE02248844209D101214D
:102DC000C804FEF7E1FF00214FF40020FEF7DCFF0E
:102DD00030E01D48844209D101210805FEF7D4FFE7
:102DE00000214FF48010FEF7CFFF23E01748844204
:102DF00008D101212020FEF7E7FF00212020FEF767
:102E0000E3FF17E01248844209D101218807FEF749
:102E1000BBFF00214FF08040FEF7B6FF0AE00D48EF
:102E2000844207D101214005FEF7AEFF0021600575
:102E3000FEF7AAFF10BD0000001001400044004052
:102E400000480040004C0040005000400014014089
:102E500000780040007C004070B50246002400234A
:102E60000025002040F66A16B14200D100BFC1F330
:102E7000421501F01F03012606FA03F3012D02D1CA
:102E80009689334006E0022D02D1168A334001E0D4
:102E9000968A33400C12012606FA04F41688344050
:102EA00013B10CB1012000E0002070BDF0B5034665
:102EB000002400260025002040F66A17B94200D100
:102EC00000BF1846C1F3421401F01F06012707FA9C
:102ED00006F5012C01D10C3004E0022C01D1103098
:102EE00000E014301AB107682F43076002E007685A
:102EF000AF430760F0BD00002DE9FF4705460E46D1
:102F00000024A14600BFA046B08900B100BF2C8AB2
:102F100024F44054F08804432C82AC8941F20C60C4
:102F20008443B08831890843718908430443AC81E4
:102F3000AC8A24F44074B0890443AC826846FEF73E
:102F400053FF2048854202D01F48854202D1DDF858
:102F50000C9001E0DDF80890A88900F4004040B131
:102F600009EBC90000EB091031684900B0FBF1F72B
:102F700007E009EBC90000EB091031688900B0FBDC
:102F8000F1F76420B7FBF0F004012009642101FB94
:102F90001078A88900F4004040B1322000EBC8004E
:102FA000B0FBF1F000F00700044308E0322000EB32
:102FB00008106421B0FBF1F000F00F0004432C81F5
:102FC000BDE8FF87001001400014014001468888D9
:102FD000C0F30800704700BFFEE700B101B97047B9
:102FE0000278437842EA0322C2F30A020A80427856
:102FF000D210837842EA4312C2F30A024A808278EE
:103000009211C37842EA8302037942EA8322C2F32F
:103010000A028A8002795210437942EAC312C2F34B
:103020000A02CA804279C2F301128A7242791211ED
:103030009308CB728279C37942EA032212B28A8161
:10304000027A437A42EA032213B201F10C02CB81E5
:10305000827AC37A42EA032213B201F10C020B8294
:10306000037B8B74437BCB74827BC37B42EA03225A
:103070008A82027C437C42EA032212B20A810A88D5
:10308000A2F5806212B20A804A88A2F5806212B26A
:103090004A808A88A2F5806212B28A80CA88A2F524
:1030A000806212B2CA800A89A2F5806212B20A81D5
:1030B00000BF94E710B586B0044604F58070019017
:1030C00000208DF80C008DF80D0008208DF80E0002
:1030D000FF208DF80F00FF218DF810108DF81110D2
:1030E0008DF812108DF813108DF814108DF815103E
:1030F000FD218DF8161001A90248FDF7D8FF06B092
:1031000010BD00000064004010B586B0044604F510
:103110008070019000208DF80C008DF80D000820C3
:103120008DF80E00FF208DF80F00FF218DF8101094
:103130008DF811108DF812108DF813108DF81410F1
:103140008DF81510FC218DF8161001A90248FDF725
:10315000AEFF06B010BD00000064004010B5074887
:1031600001F01EFB064801F01BFB0649034801F075
:103170005FFB0549024801F05BFB10BD100E00200B
:103180001C0E002081360008F53800081CB54FF4ED
:103190004070FEF741FD4FF47A7001F075FF00F0CA
:1031A000F7F8002408E0204600F066F840F2C52059
:1031B00001F0A0FF601CC4B2042CF4DB0020062345
:1031C00002464FF4E13100900F4801F095FB0F49A2
:1031D0000D4800F0F7FB02F035FE01210802FEF772
:1031E000B3FD0420009001208DF8040000208DF82C
:1031F000060002208DF8070003208DF805006946BF
:103200000348FEF7C5FA1CBD3C0E00203112000831
:103210000020024071B52DED020B85B0064605ACCD
:1032200006AD06F58070009000208DF808008DF83E
:10323000090008208DF80A0020788DF80B006178CD
:103240008DF80C10A1788DF80D10E1788DF80E1026
:1032500029788DF80F1069788DF81010A9788DF8FD
:103260001110E9788DF8121069460248FDF71FFF2A
:1032700008B070BD0064004010B50446032C00DDAA
:1032800010BD0420A04081B20248FEF7EEFA00BF54
:10329000F6E70000001C0240B0EE401A30EEC10A12
:1032A000F0EE401AB0EE412A00EE100AB8EEC00A65
:1032B00060EE212A01228A40521E00EE102AB8EE4A
:1032C000C03A82EE830A30EE020A7047F0EE401AEE
:1032D000F4EEE01AF1EE10FA02D2B0EE600A704796
:1032E000F4EEC11AF1EE10FA02DDB0EE410AF6E793
:1032F000B0EE610AF3E7000010B50446032C00DDD0
:1033000010BD0420A04081B20248FEF7ACFA00BF15
:10331000F6E70000001C024010EE101A0160816800
:1033200000EE901AC16801EE101A70EE811A8168E1
:1033300000EE901A80EEA11A416800EE901A61EE3C
:10334000200A816801EE101AC16801EE901A31EE70
:10335000212A01EE101AC1EE021A016801EE101ABC
:1033600041EE810A10EE901A4160704710EE102A6B
:10337000C2600A688260DFED050A10EE902A0260E2
:10338000DFED020A10EE902A426070470000000054
:1033900010B50521722000F017F80521732000F008
:1033A00013F80521742000F00FF80521752000F0B6
:1033B0000BF8002404E02046FFF79EFF601CC4B217
:1033C000042CF8DB10BD000070B504460D46B02C8F
:1033D00000DB70BD042D12D1B02C0ADA104800EBCE
:1033E0000410806828B10E4800EB0410C07BFF2851
:1033F00000D1EEE703212046FFF7E6FF0EE0082D9F
:1034000007D142F210724FF47A712046FEF70EFC9B
:1034100004E0032229462046FEF72AFA00BFD8E737
:1034200030790008B0EE401A10B99FED7C0A704761
:1034300090ED100A80ED110A90ED0F0A80ED100A50
:10344000C0ED060A80ED071A21B930EEC10A80ED01
:103450000F0A03E0012901D1C0ED0F0A0278002A0A
:1034600075D190ED010AD0ED0F1A20EE210A80ED02
:10347000090A90ED0A0AD0ED021A90ED0F2A01EE2A
:10348000820A80ED0A0A90ED0D0A80ED0E0A90ED99
:103490000C0A80ED0D0A90ED0F0AD0ED101A30EEF7
:1034A000610A80ED0C0A90ED030AD0ED0C1A20EEB3
:1034B000210A80ED0B0A90ED0A0AD0ED051AB4EE50
:1034C000E10AF1EE10FA04DD90ED050A80ED0A0A3A
:1034D00010E090ED0A0AD0ED051AF1EE611AB4EE93
:1034E000E10AF1EE10FA05D290ED050AB1EE400ABC
:1034F00080ED0A0A90ED090AD0ED0A1A30EE210A91
:10350000D0ED0B1A30EE210A80ED080A90ED080A82
:10351000D0ED041AB4EEE10AF1EE10FA04DD90EDFC
:10352000040A80ED080A76E090ED080AD0ED041A4E
:10353000F1EE611AB4EEE10AF1EE10FA6BD290ED01
:10354000040AB1EE400A80ED080A64E0FFE7027861
:10355000012A60D190ED0F0AD0ED101A30EE610A09
:10356000D0ED011A20EE210A80ED090A90ED020A41
:10357000D0ED0F1A20EE210A80ED0A0A90ED0D0A17
:1035800080ED0E0A90ED0C0A80ED0D0A90ED0F0A09
:10359000D0ED101AB0EE002A02EE610AD0ED111A39
:1035A00030EE210A80ED0C0A90ED030AD0ED0C1AE2
:1035B00020EE210A80ED0B0A90ED090AD0ED0A1ADF
:1035C00030EE210AD0ED0B1A30EE210AD0ED081AA8
:1035D00030EE210A80ED080A90ED080AD0ED041AB9
:1035E000B4EEE10AF1EE10FA04DD90ED040A80ED8C
:1035F000080A10E090ED080AD0ED041AF1EE611A05
:10360000B4EEE10AF1EE10FA05D290ED040AB1EE43
:10361000400A80ED080A90ED080A08E70000000063
:1036200000B102B97047017092ED001A80ED011AE5
:1036300092ED011A80ED021A92ED021A80ED031A42
:1036400080ED040AC0ED050A9FED0C1A80ED0E1AFC
:1036500080ED0D1A80ED0C1A9FED081A80ED081A06
:1036600080ED0B1A80ED0A1A80ED091A80ED111A0F
:1036700080ED101A80ED0F1A00BFD3E700000000A4
:1036800000B5034640F201221868811A90427DD0AD
:1036900008DC04280DD005280CD006280BD00728FC
:1036A00075D109E0012973D0022972D00329F7D11D
:1036B000C7E000BF00BF00BF1878001F8649087030
:1036C000D87A00F00F018448007800EB400283486C
:1036D00000F83210D87A01117F48007800EB4002E0
:1036E0007E4800EBC2004170597B187B41EA002103
:1036F0007948007800EB4002784800EBC200416056
:10370000987B0101D87B41EA20117348007800EBD7
:103710004002724800EBC2008160197CD87B00F047
:103720000F0041EA00216C48007800EB40026B4832
:1037300000EBC200C1601868062817D166490978F5
:1037400001EB4102654901EBC20148681021DFED40
:10375000640A9FED640AFFF79FFD604874305E497C
:10376000097800EB810080ED000A1BE05A490978D6
:1037700001EB4102594901EBC20148681021DFED1C
:103780005A0A9FED5A0AFFF787FD03E056E0A1E0D1
:1037900055E055E0514874304F49097800EB8100FD
:1037A00080ED000A4C49097801EB41024B4901EBDD
:1037B000C20188680C21F2EE040ABAEE040AFFF78F
:1037C0006BFD464884304449097800EB810080ED68
:1037D000000A4149097801EB4102404901EBC2016D
:1037E000C8680C21F2EE040ABAEE040AFFF754FD91
:1037F0003948007800EB4001384800EBC10080ED0B
:10380000030A587C00EE100AB8EE400A32480078ED
:1038100000EB4001314800EBC10080ED040A987CC8
:1038200000EE100AB8EE400A2B48007800EB400189
:103830002A4800EBC10080ED050A4BE000BF00BF45
:1038400000BF1878401E2A4908700846007800EB2F
:10385000C0012248683830F8110001B224480078CD
:1038600000EBC0021D48683800EB42000181187B64
:10387000D97A40EA01211E48007800EBC0021748BF
:10388000683820F81210997B587B41EA002001B279
:103890001748007800EBC0021048683800EB42007F
:1038A0004180197CD87B41EA002001B210480078A1
:1038B00000EBC0020948683800EB42008180597C67
:1038C0000B48007800EBC0020448683800EB420067
:1038D000817100BF00BF00BD000000205803002020
:1038E00021B0324021B032C0B30CC93FB30CC9BFC4
:1038F000010000200168A1F2022101BB1049B1F8CA
:10390000CC100AB20E49A1F8D420017BC27A41EA58
:1039100002220B49A1F8CC20827B417B42EA0121A3
:103920000AB20749A1F8CE20027CC17B42EA0121FC
:103930000AB20349A1F8D020427C81F8D220704716
:10394000EC02002070B5044640F22551E068FFF714
:1039500083FA20B3E068FFF739FBC5B21549E06888
:1039600088420DD11448057014480078102807DAF1
:10397000124801780078401C104A107010484554D5
:103980002A462146204600F02AFE206908B1206917
:10399000804740F22551E068FFF7C1F909E040F2A5
:1039A0002441E068FFF758FA18B1206908B120698E
:1039B000804770BD007800402802002029020020C6
:1039C000840E00200161704770B504460D4616460E
:1039D00032462946204601F04BF80446204670BD89
:1039E000002101604160704710B5044601F0ECFB16
:1039F0006063002084F828000120208610BD416B00
:103A0000897A012903D1022180F832100EE0416B3E
:103A1000897A032903D1012180F8321006E0416B35
:103A2000897A022902D1002180F83210416BC97ACB
:103A3000012903D1002180F828100DE0416BC97ADB
:103A4000032903D1012180F8281005E0416BC97AD0
:103A5000022901D180F82810704700B502461046AF
:103A6000FFF7CDFF00BD000070B5044600253C48BF
:103A7000206000BF1DE03B48294601F0030202EB35
:103A8000C203021D02EB430205EB8501201D40F835
:103A9000212005EBC50204F1540101EBC200DFED6A
:103AA000320A9FED320A324A0021FFF7B9FD681C45
:103AB000C5B2042DDFDBF7EE000AB2EE000A2D4A94
:103AC000002104F5DE70FFF7ABFDDFED2B0AB1EE50
:103AD000080A2A4A002104F50170FFF7A1FD2849D0
:103AE0009FED280A04F51370FFF740FC26499FED6F
:103AF000250A04F51770FFF739FC24499FED210AC8
:103B000004F51B70FFF732FCB1EE000A84EDA50A44
:103B1000B9EE000A84EDA60AB1EE000A84EDA70A08
:103B2000B9EE000A84EDA80A9FED130A84EDB60AE7
:103B30009FED170A84EDB70A9FED0F0A84EDAB0ADB
:103B400084EDAA0A84EDA90A9FED120A84EDB40A55
:103B50000020216881F83200204600F0C1FA70BDD3
:103B6000D40D0020EC0200200000FA4400401C4666
:103B7000007900080C790008CDCC4C3E187900087B
:103B8000247900086F12033B287900082C7900087B
:103B900085EB513E0000000038B50446B4F95000F2
:103BA0000090B4F93C30B4F92820B4F91410024D57
:103BB000286800F03FFE38BDEC02002010B52DED66
:103BC000028B84B004469FED5C0A8DED030A9FEDE5
:103BD0005A0A8DED020A9FED580A8DED010A01ABDC
:103BE00002AA03A9204600F035FB206890F83200B5
:103BF000012824D19DED010AB0EE408AB1EE480AB9
:103C000084EDA40A94EDA50AB0EE401A94EDA60A3C
:103C1000F0EE400A9DED030AFFF758FB84EDA30A7E
:103C200094EDA70AB0EE401A94EDA80AF0EE400A0F
:103C30009DED020AFFF74AFB84EDA20A78E02068B6
:103C400090F83200A0B99DED030A84EDA20A9DED23
:103C5000020A84EDA30A9DED010A84EDA40A9FEDFA
:103C6000360A84ED940A9FED340A84ED980A5FE0E9
:103C7000206890F8320002285AD19FED2F0AB0EE4A
:103C8000408A9FED2D0AF0EE408AD4F8CC02D0EDA8
:103C9000000AF1EE600AB0EE600A00F0B5FFB0EE87
:103CA000408AD4F8CC02D0ED000AF1EE600AB0EE02
:103CB000600A00F001FFF0EE408AB1EE480ADDED47
:103CC000030A20EE200ADDED020A08EEA00A84EDC8
:103CD000A20A9DED030A28EE800ADDED020A08EE35
:103CE000200A84EDA30A9DED010A84EDA40AD4ED17
:103CF000A51AB0EE611AD4EDA61AF0EE610AD4ED61
:103D0000A21AB0EE610AFFF7E1FA84EDA20AD4ED3F
:103D1000A71AB0EE611AD4EDA81AF0EE610AD4ED3C
:103D2000A31AB0EE610AFFF7D1FA84EDA30A00BF2F
:103D300004B0BDEC028B10BD0000000030B52DEDCD
:103D4000048B91B005469FED7D0AB0EE408A9FED51
:103D50007B0AB0EE409A9FED790AF0EE408A00208F
:103D60000D900E900F90109009900A900B900C906F
:103D7000059006900790089001900290039004909F
:103D80000024D5EDA41AB0EE611AD5EDA31AF0EE19
:103D9000610AD5EDA21AB0EE610A0DA9284600F01D
:103DA000B1FA00BF33E00DA800EB840090ED000AEB
:103DB00004EB8401281D00EB810080ED030A04EB75
:103DC0008401281D00EB810090ED030AB5EEC00AC6
:103DD000F1EE10FA07DD04EB8401281D00EB8100F1
:103DE00090ED030A08E004EB8401281D00EB81003C
:103DF00090ED030AB1EE400AF0EE408AB4EEE88A94
:103E0000F1EE10FA01D2B0EE688A601CC4B2042C44
:103E1000C9DBB1EE000AB4EEC08AF1EE10FA1BDD88
:103E2000B1EE000AC0EE080AB0EE609A002411E07C
:103E300004EB8401281D00EB810090ED030A20EEC5
:103E4000090A04EB8401281D00EB810080ED030AC0
:103E5000601CC4B2042CEBDB002450E004EB8401B2
:103E6000281D00EB810090ED030A09A800EB8400F7
:103E700080ED000A09A800EB840090ED000ADFED58
:103E8000300AB4EEE00AF1EE10FA0BDC09A800EB00
:103E9000840090ED000ADFED2B0AB4EEE00AF1EEAB
:103EA00010FA0AD209A800EB840090ED000A09A8D4
:103EB00000EB840080ED000A06E09FED200A09A8CF
:103EC00000EB840080ED000A09A901EB840191ED6B
:103ED000001AF0EE410A04EB8402291D01EB820175
:103EE00091ED021AB0EE410A04EBC40205F154014F
:103EF00001EBC2000021FFF795FA601CC4B2042C4C
:103F0000ACDB002414E004EBC40105F1540000EB29
:103F1000C10090ED080ABDEEC00A10EE100A01B211
:103F200004EB8402281D00EB82000182601CC4B2F5
:103F3000042CE8DB11B0BDEC048B30BD00000000A8
:103F4000CDCCCC3DCDCCCCBD9FED0A0A80EDB50AE1
:103F50009FED090A80EDA90A9FED080A80EDAA0AE3
:103F60009FED070A80EDAB0AB2EE040A80EDB40AB9
:103F700070470000CDCCCC3F6666663FAE47613FE0
:103F80009A99193F70B52DED068B04460D461646DD
:103F900005B116B9BDEC068B70BD2068406BC088BA
:103FA000A8B32068406BB0F90600002814DD216832
:103FB000496BB1F9060003F07FFB41EC1A0B9FED52
:103FC000430B53EC102B03F08FFB41EC190B03F068
:103FD000E9F908EE900A21E02068406BB0F906008C
:103FE00000281BDA2168496BB1F9060003F064FB75
:103FF00041EC1A0B9FED350B53EC102B03F074FBC7
:1040000041EC190B03F0CEF908EE900A06E0FFE749
:10401000DFED308A9FED2F0A84ED980A2068406B0F
:104020008088A8B32068406BB0F90400002814DD34
:104030002168496BB1F9040003F03EFB41EC1A0B17
:104040009FED250B53EC102B03F04EFB41EC190BAD
:1040500003F0A8F908EE100A21E02068406BB0F9DF
:10406000040000281BDA2168496BB1F9040003F051
:1040700023FB41EC1A0B9FED180B53EC102B03F0B4
:1040800033FB41EC190B03F08DF908EE100A06E042
:10409000FFE79FED108A9FED0F0A84ED940AB0EEC2
:1040A000480A04F51370FFF737F9B0EE680A04F513
:1040B0001770FFF731F994ED940A85ED000A94ED3D
:1040C000980A86ED000A00BF64E700007B14AE4743
:1040D000E17A743F000000007B14AE47E17A74BFC0
:1040E000002100BF2AE001EB8103021D52F82320CA
:1040F000B2F9022000EE102AB8EEC00ADFED4E0A37
:1041000020EE200A01EB8103021D02EB830282ED07
:10411000020A01EBC10300F1540202EBC30292ED6B
:104120000C0ADFED460A20EE200A01EB8103021D96
:1041300002EB830282ED010A4A1CD1B20429D2DBD0
:10414000D0F8B822B2F9042000EE102AB8EEC00A66
:10415000DFED3B0A20EE200A80EDAF0A90EDAF0ABA
:10416000B5EEC00AF1EE10FA02DD90EDAF0A03E001
:1041700090EDAF0AB1EE400ADFED320AB4EEE00A8C
:10418000F1EE10FA03D29FED300A80EDAF0AD0F8BD
:10419000B422B2F9042000EE102AB8EEC00ADFED16
:1041A0002B0A20EE200A80EDB10A90ED030AB1EE51
:1041B000400AD0ED080A30EE200AD0ED0D0A30EEAC
:1041C000200AD0ED120A30EE600AF5EE000A20EE69
:1041D000200A80ED9F0A90ED030AB1EE400AD0ED6F
:1041E000080A30EE600AD0ED0D0A30EE200AD0ED5C
:1041F000120A30EE200AF5EE000A20EE200A80EDC9
:10420000A00A90ED030AB1EE400AD0ED080A30EEA4
:10421000600AD0ED0D0A30EE600AD0ED120A30EEE1
:10422000600AF5EE000A20EE200ADFED090A80EEB2
:10423000201A80EDA11A70470A01DA390000FA430A
:10424000CD0FC93817B7513A0000000058A08B3A7B
:10425000CDCC4C3E2DE9F0412DED048B04460E46AD
:1042600017461D46206890F8320060B99FED220A7B
:1042700086ED000A9FED200A87ED000A9FED1E0AD9
:1042800085ED000A34E0206890F83200012821D141
:104290003A4631462046FFF775FE2068406B00889D
:1042A00098B12168496BB1F9000003F005FA41ECBF
:1042B000190B9FED120B53EC102B03F015FA41EC88
:1042C000180B03F06FF8286012E09FED0B0A85EDE4
:1042D000000A0DE0206890F83200022808D13A4622
:1042E00031462046FFF74EFE94EDB40A85ED000AF4
:1042F000BDEC048BBDE8F081000000007B14AE47EC
:10430000E17A74BF70EE601A90EDB62A41EE021A9F
:10431000C1ED001AF1EE401A71EEE01A90EDB62AE6
:1043200041EE021AC1ED011A70EE201A90EDB72A83
:1043300041EE021AC1ED021AF1EE401A71EEA01A16
:1043400090EDB72A41EE021AC1ED031A7047000042
:104350002DE9F04104460D461646C4F8A050C4F8B5
:10436000A46041F270779FED190B84ED020B9FED75
:10437000190A84ED080A9FED180A84ED090A94EDE4
:10438000091AF0EE410A94ED081AB0EE410A134AF8
:10439000002104F11000FFF743F99FED0E0A84EDB0
:1043A0001A0A9FED0D0A84ED1B0A94ED1B1AF0EE1C
:1043B000410A94ED1A1AB0EE410A084A002104F1AC
:1043C0005800FFF72DF92046BDE8F08100000000FD
:1043D0000000000000409C460000FA44C00100209C
:1043E00070B52DED048B05460C462F4890ED000B63
:1043F00051EC100B02F0D6FF08EE100A94ED041BEE
:10440000B0EE410AF0EE610A51EC100B02F0CAFF67
:1044100008EE900AF0EE480AB0EE680A0320FEF7B4
:10442000F9FE9FED220B53EC102B1F4890ED000B73
:1044300051EC100B02F0E8FF41EC190B02F0B2FF57
:1044400008EE100A94ED021BB0EE410AF0EE610A8C
:1044500051EC100B02F0A6FF08EE900AF0EE480AAD
:10446000B0EE680A0220FEF7D5FE0F4890ED000B73
:1044700051EC100B02F096FF08EE100A94ED001BB1
:10448000B0EE410AF0EE610A51EC100B02F08AFF27
:1044900008EE900AF0EE480AB0EE680A0020FEF737
:1044A000B9FEBDEC048B70BDF801002000000000D7
:1044B0000000004010B50B4601469FED220A81ED39
:1044C000000A9FED200A81ED010A9FED1E0A81ED91
:1044D000020A9FED1C0A81ED030A00BF084600F1A5
:1044E00010019FED180A81ED000A9FED160A81ED7B
:1044F000010A9FED140A81ED020A9FED120A81ED77
:10450000030A9FED100A81ED040A00BFA1F110001B
:104510009FED0D0A80ED090AB2EE000A80ED000A57
:10452000B1EE040A80ED010A93ED000ADFED070AFF
:1045300080EE201A80ED0C1A9FED020A80ED0D0A24
:1045400010BD00000000000065E3C13B00007042A8
:1045500010B50446204600F03DF80446C01C00F0AB
:1045600039F8C41EC01C00F035F8841FC01C00F0D0
:1045700031F8A0F10904C01C00F02CF8A0F10C04E3
:10458000C01C00F027F8A0F10F04C01C00F022F8B6
:10459000A0F11204C01C00F01DF8A0F11504C01C0D
:1045A00000F018F8A0F11804C01C00F013F8A0F1F6
:1045B0001B04C01C00F00EF8A0F11E04C01C00F08B
:1045C00009F8A0F12104C01C00F004F8A0F12404B3
:1045D000204610BD00210180817000BF704770B57A
:1045E0000446134609B1086810B94FF0FF3070BD9A
:1045F0008888401C0D8990FBF5F605FB1602C888DB
:10460000904205D08D88086843558A800020EEE7E7
:104610004FF0FF30EBE770B506460C46154604B187
:1046200015B94FF0FF3070BD206840B92846FBF740
:10463000C0FE2060206810B94FF0FF30F3E7002083
:10464000E080A080258100BFEDE700002DE9F74F55
:104650008AB004468B464F49206888420AD13125EA
:1046600030264FF009084FF014094FF000774FF053
:10467000000A0DE048492068884209D11625152610
:104680004FF009084FF040094FF080674FF00E0AD5
:1046900001213846FDF768FB01213846FDF774FB20
:1046A00000213846FDF770FB032207212846FDF75D
:1046B000DFF8032207213046FDF7DAF8374901EB2E
:1046C00005118889FDF75AF8344901EB051101906D
:1046D000424608680199FDF7A3F8304901EB06113D
:1046E0008889FDF74BF82D4901EB061101904246F0
:1046F00008680199FDF794F800208DF82200012048
:104700008DF8230000208DF824008DF825008DF809
:1047100026008DF827008DF81E008DF81F0005205B
:104720008DF8200001208DF821000520ADF81C0037
:1047300007A92068FCF7B9FB8DF816A000208DF8BA
:10474000170001208DF818000020ADF80C00ADF81E
:104750000E00ADF81000ADF81200ADF81400012005
:104760008DF8190003A8FCF783FA012202212068C2
:10477000FCF792FB8DF808908DF809B00C988DF835
:104780000A0001208DF80B0002A8FDF709FA0DB010
:10479000BDE8F08F006400400068004030790008F8
:1047A00010B50446002204212046FFF74FFF10BD3C
:1047B0000160002242607047016042607047000063
:1047C00070B50546002410E00A48005DB02801DA03
:1047D000012000E0002000B970BD0649085D0322F9
:1047E0000521FDF745F8601CC4B22878A042EBDC37
:1047F00000BFF1E730840008082101707047000015
:1048000010B5044602212068FCF7B6FA68B102210F
:104810002068FCF7D9F9054A00212068FCF7CFFB96
:10482000606810B101486168884710BD280E0020FB
:10483000416070472DE9F04186B004460D461646AA
:104840001F46DDF83080A068019000208DF80C0034
:104850008DF80D0008208DF80E00280A8DF80F0045
:104860008DF81050310A8DF811108DF81260390A48
:104870008DF813108DF814704FEA18218DF815106B
:104880008DF8168001A92068FCF711FC06B0BDE880
:10489000F08170B504460E46154631462046FFF7B6
:1048A00087FF0446A560204670BD000070B5054630
:1048B000002418E00E48005D0E4901EB001000686E
:1048C00040690B49095D0B4A02EB01118989484097
:1048D0000749095D02EB011109684861642001F094
:1048E0007DFC601CC4B22878A042E3DC70BD0000EF
:1048F000F8780008307900082DE9FF4F89B00446A8
:1049000093465449E06888420DD185154615DFF875
:1049100048914FF0070A4FF0080801218804FDF77D
:1049200023FA272739E04D49E06888420ED14FF439
:1049300080454615DFF828914FF0080A4FF04008EF
:1049400001212020FDF730FA472726E04549E0689D
:1049500088420DD185158026DFF80C914FF0080AAA
:104960004FF0100801218807FDF7FEF9522714E0E7
:104970003E49E06888420DD102250126DFF8E89023
:104980004FF0080A4FF0100801214005FDF7ECF93F
:10499000532702E00DB0BDE8F08F01214046FDF73E
:1049A000D3F92846FCF7EAFE5246014601904846F4
:1049B000FCF736FF3046FCF7E1FE52460146019017
:1049C0004846FCF72DFF45EA0600079003208DF8C6
:1049D000210002208DF8200000208DF82200012007
:1049E0008DF8230007A94846FCF7D2FEF8B28DF8EF
:1049F00008000C988DF8090016988DF80A0001201F
:104A00008DF80B0002A8FDF7CBF80A9803900BF481
:104A10007040ADF810000BF0F0000002ADF812008D
:104A20000BF47060ADF814000020ADF818000C20F5
:104A3000ADF8160003A9E068FEF75EFAA18A01222C
:104A4000E068FEF733FA0121E068FEF777F900BF6E
:104A5000A0E7000000480040000C024000140140A4
:104A6000001802400078004000100240007C004026
:104A700070B504460D461646E56040F22550A0820A
:104A800000202061B2B221462046FFF7C4FD204637
:104A900070BD4100080218BF04200A0E18BF40F084
:104AA00001004FF07F4232EA010108BF40F00200EE
:104AB000012808BF0520704710EE101A08B5444AB7
:104AC0006846B2EB410F28D94FF0E640B0EB410FFA
:104AD00094BF00204FF0FF3000900098002861DB69
:104AE00060EE000A10F0010F45D010F0020FDFED6C
:104AF000391A9FED391A00EEE11ADFED381A40EE4F
:104B0000811A21EEA01AF0EE400A40EE010A08BF19
:104B1000F1EE600AB0EE600A08BD314B21F00042B0
:104B200093423CD911F0004FDFED2E0A20EE201AFF
:104B3000DFED2D0A19BF31EE601A71EE200A31EE59
:104B4000201A71EE600ABDEEE01A11EE100A9FED18
:104B5000271A00F0030000EEC10A9FED251A00900D
:104B600000EEC10A9FED231A00EEC10A9FED221A42
:104B700000EEC10AB1E79FED211A9FED210A10F066
:104B8000020F00EE810A9FED1F1A00EE801AB7EEA9
:104B9000000A00EE810A18BFB1EE400A08BD00F01D
:104BA0000FF99AE710EE100A4000B0F17F4F3CBFBA
:104BB000B7EE000A08BD07D14FF00100FBF782FEF7
:104BC000BDE8084000F0ECB8BDE8084000F0E4B8EB
:104BD000B61F927E336D4C39DA82083CA0AA2ABEF9
:104BE000490E494683F9223F0000004B0000C93FAF
:104BF00000A0FD390020A2331A61342CB93AB2BAB0
:104C0000CA9F2A3DDDFFFFBE00B510EE101A2DED44
:104C1000028B81B0524A6846B2EB410F2ED94FF059
:104C2000E640B0EB410F94BF00204FF0FF30009002
:104C30000098B0EE408A00286ADB10F0010F4BD0DC
:104C400068EE080A9FED471A9FED470A00EE810AB9
:104C50009FED461A10F0020F00EE801AB7EE000A20
:104C600000EE810A02BF01B0BDEC028B00BD00BFA7
:104C700001B0B1EE400ABDEC028B00BD3C4B21F00F
:104C80000042934241D911F0004FDFED3A0A20EE85
:104C9000201ADFED390A19BF31EE601A71EE200AD1
:104CA00031EE201A71EE600ABDEEE01A11EE100A24
:104CB0009FED321A00F0030000EEC10A9FED301A9A
:104CC000009000EEC10A9FED2F1A00EEC10A9FED81
:104CD0002E1A00EEC10AABE728EE080A9FED2B1A48
:104CE000DFED2B0A10F0020F40EE410A9FED291A6A
:104CF00000EE201A61EE000AB0EE480A08EE200A23
:104D0000B6D101B0BDEC028B00BD00F059F88FE7C1
:104D100018EE100A4000B0F17F4F0DD218EE100AC5
:104D2000FFF7B7FE042808BF00F042F8B0EE480ACB
:104D300001B0BDEC028B00BD09D10120FBF7C2FD23
:104D400001B0BDEC028B5DF804EB00F029B801B0B6
:104D5000B0EE480ABDEC028B5DF804EB00F01CB825
:104D6000B61F927EB93AB2BACA9F2A3DDDFFFFBE96
:104D7000490E494683F9223F0000004B0000C93F1D
:104D800000A0FD390020A2331A61342C336D4C3958
:104D9000DA82083CA0AA2ABE30EE000A7047000062
:104DA000DFED020A80EEA00A70470000000000005C
:104DB0009FED020A20EE000A70470000000000107C
:104DC0002DE9F0014FF07F42B2EB410F9FBF4FF052
:104DD000FF310160BDE8F00170474FF0004242EA48
:104DE0000123C1F3C752783A551112F01F0C434CFE
:104DF000CCF120067C44C1F3C752A2F178024FEAFD
:104E0000621204EB820254F8254008BFD2E9015631
:104E100012D0556804FA0CF425FA06F73C4397685B
:104E200005FA0CF527FA06F8D26807FA0CFCF240EE
:104E300045EA08054CEA0206A4FB034CA5FB035215
:104E4000A6FB03631D449D4234BF012600261319AF
:104E5000334416B1934202D903E0934201D20122B6
:104E600000E00022624402F1200C9206DC0C42EACF
:104E7000443200EE102A5B03DFED210AF8EEC01A7F
:104E800000EE103A4FEA9C1C11F0004FB8EE400AB9
:104E9000C0F800C020EE201A00EE105ADFED190A0B
:104EA000B8EE400A20EE200A71EE810A70EE800A08
:104EB00010EE902A02F500626FF30B0200EE902ACA
:104EC00070EEE11A31EEC11ADFED101A30EE411A20
:104ED0009FED0D0A20EE800A01EE210A9FED0C1ACB
:104EE00000EE810A04BFBDE8F0017047CCF18051AB
:104EF0000160BDE8F001B1EE400A704740360000A5
:104F0000000000360000802C22AAFD29DB0FC92FEB
:104F10000000C92F10B5034C2046FFF76DFC044676
:104F200010BD00000200002010B54FF400720549CA
:104F30000548FFF7AEFC4FF4007204490448FFF740
:104F4000A8FC10BD00640040100E00200068004066
:104F50001C0E00200C4801460C4A0A6000BF08469F
:104F60004C3141F84C2900BF0846643186220A7052
:104F700087224A7000BFA1F16400091D044A41F86C
:104F8000682900BF08467047EC020020100E002080
:104F90001C0E002010B5102207490848FEF714FD2A
:104FA000102207490748FEF70FFD1022064907485F
:104FB000FEF70AFD10BD0000007800403C0E002006
:104FC00000480040540E0020001401406C0E0020E8
:104FD00000B50248FEF704FD00BD0000E80A00200D
:104FE00000B54FF0606205490548FFF7E5FB4FF05B
:104FF000006204490448FFF7DFFB00BD4060024047
:1050000058720020406402407072002010B5034CBA
:105010002046FFF79DFA044610BD0000D40D002085
:1050200070B5054E054C064D2A4621463046FFF721
:105030008FF9064600BF70BDE80700203800002049
:10504000500000201CB50C48B0F9520000EE100AC8
:10505000B8EEC00A8DED010A0748B0F85E0000EE18
:10506000100AB8EE400A8DED000A6A4601A903480D
:10507000FFF720FA1CBD0000EC020020887200201F
:10508000FBF774FA00BE704770B504460025681F30
:10509000FDF7D6F8134800681349B0FBF1F0134947
:1050A0000870104800684FF4FA51B0FBF1F0104955
:1050B00008600CB94FF47A740A480068B0FBF4F049
:1050C000C5086D1E4FF0E020006940F002004FF06F
:1050D000E021086108464561006940F0010008616F
:1050E00070BD0000D402002000127A00A802002047
:1050F000AC02002070B503460024002100200022ED
:1051000000254FF0E02675690D4E367803FB06F456
:105110004FF0E026B16910E04FF0E026B069884218
:105120000BD0884202D20E1A324402E02E1A0E44EC
:1051300032440146A24200D300E0EDE700BF70BD5B
:10514000A80200202DE9F04107463E4656B900BFAF
:10515000502080F31188BFF34F8FBFF36F8F00BFD4
:1051600000BFFEE713480068864201D100241EE01C
:1051700000F02AFF756900F051FF0F480068854272
:1051800003D00E480068854201D102240FE00C488C
:10519000854205D1B06A08B9032408E0022406E07C
:1051A0000848854200D00DB9042400E001242046BF
:1051B000BDE8F0812C0200203002002034020020E3
:1051C000A41100209011002000487047C0720020F8
:1051D000FDF7DCFF00F040FE01F006FA00BFFEE73D
:1051E0002DE9F04105460E461C4807681C4800683A
:1051F000001D00F047FE50B91948006890F82C10C7
:105200000120884017490968814316480160681CDD
:1052100038B936B112480168091D134800F0C8FEBC
:105220001AE07C190E4800684460BC4207D20C4862
:105230000168091D0D48006800F0A0FE0CE0084858
:105240000168091D0A48006800F098FE09480068D6
:10525000844201D207480460BDE8F081400200208A
:105260002C02002044020020A4110020340200205F
:10527000300200205C02002010B5044600F0A4FEBD
:1052800024480068401C234908602348006840B94E
:10529000214804600846006801280DD100F0E0F9BB
:1052A0000AE01E48006838B91B480068C06AE16A15
:1052B000884201D81848046019480068401C184901
:1052C000086008460068606494F82C10012088404B
:1052D00014490968084313490860E16A01EB810138
:1052E000114A02EB8100211D00F062FE00F096FEE3
:1052F0000A48006868B108480068C06AE16A8842E4
:1053000007D24FF0805009490860BFF34F8FBFF3B9
:105310006F8F10BD3C0200202C02002048020020AC
:105320005802002044020020D40E002004ED00E0CA
:1053300010B500F049FE10480068D0B90F4800F0E1
:105340000DFE0F4800F00AFE0C480E4908600C489C
:105350000D49086000220C210A2001F093FA064949
:1053600008600846006820B108A10348006800F002
:10537000F9FE00F053FE10BD70020020B8110020AD
:10538000CC110020680200206C020020546D725184
:105390000000000070B523E001F070F913480068C8
:1053A00008B9012000E00020054601F00DFFBDB95D
:1053B00000F00AFE0D48C068C468201D00F062FDC0
:1053C0000B480068401E0A4908600A480068401EF1
:1053D0000849086000F022FE204600F060F800BF97
:1053E000044800680028D7D170BD0000901100204B
:1053F0003C0200203802002070B504460D46206CA7
:1054000070B1216CE0680844E0606168E06888423F
:1054100001D32068E0602846226CE168FBF7F4F8CD
:1054200070BD2DE9F04104460F4615464FF00008C7
:10543000A66B206C40B9206860BB606801F014FE68
:1054400080460020606025E07DB93946226CA06866
:10545000FBF7DAF8216CA0680844A060D4E90110D9
:10546000884217D32068A06014E03946226CE068B7
:10547000FBF7CAF8216CE068401AE0602168E06838
:10548000884203D2216C6068401AE060022D01D18D
:1054900006B1761E701CA0634046BDE8F08110B5D1
:1054A0000446206B00F0D8FD204600F0D5FD10BD6D
:1054B0000146084A126812680AB9012200E0002277
:1054C0000A600A6822B9034A1268D268106800E0CC
:1054D000002070476802002030B54FF4C0431748E1
:1054E00000F007042CB1C01D20F00700134C041B72
:1054F0001B1B0246124C22600024114D6C60D01818
:10550000083820F007000F4C206000240D4D2D6856
:105510006C600C4D2D682C601146441A4C60094C8F
:1055200024680C60084D4C682C60084D4C682C6059
:105530004FF00044064D2C6030BD0000E01100200B
:10554000880200209002002098020020940200208F
:105550009C02002000BFFFF71DFF064800680128DD
:10556000F9D94FF0805004490860BFF34F8FBFF363
:105570006F8FF0E7D40E002004ED00E02DE9F0413C
:1055800006460D4617469846069C0DB9246000E075
:105590002760E66325640121204601F081FA84F842
:1055A00050800020A064BDE8F0812DE9F05F8246C4
:1055B0000F4690469B460A9E0C9C4FEA8801A52206
:1055C000206BFBF798F8A8F10100216B01EB800933
:1055D00029F0070909F0070008B9012000E00020C0
:1055E00050B900BF502080F31188BFF34F8FBFF335
:1055F0006F8F00BF00BFFEE7002507E0795D04F173
:1056000034004155785D00B902E06D1C102DF5D3D2
:1056100000BF002143200155202E00D31F26E66243
:10562000E66400202065201D00F0A5FC04F11800B0
:1056300000F0A1FC2461C6F12000A061646200209A
:10564000606584F858005A465146484600F0E4FB2D
:1056500020600B9808B10B980460BDE8F09F000033
:1056600010B5002407E004EB84010F4A02EB81002F
:1056700000F074FC641C202CF5D30C4800F06EFC88
:105680000B4800F06BFC0B4800F068FC0A4800F087
:1056900065FC0A4800F062FC0448094908600448B7
:1056A0000849086010BD0000D40E002054110020ED
:1056B000681100207C11002090110020A41100200E
:1056C000300200203402002010B50146164800E0E8
:1056D000006803688B42FBD30246436813448B4245
:1056E00004D143684C682344436001460A464B6832
:1056F00013440468A34211D10C4C03682468A342EC
:1057000008D04B680468646823444B6003681B68D6
:105710000B6005E0054B1B680B6001E003680B6044
:10572000884200D0016010BD880200209002002055
:105730002DE9F04104460D4616461F464FF000087D
:1057400065602461B5420CD8F01BA169884202D380
:105750004FF0010811E0211D0948006800F00EFC1F
:105760000BE0BE4204D2BD4202D34FF0010804E078
:10577000211D0448006800F001FC4046BDE8F081AE
:105780006C0200206802002070B5054600F01CFC89
:10579000A86B08B9012400E0002400F03FFC20467B
:1057A00070BD70B5054600F00FFCA86BE96B884230
:1057B00001D1012400E0002400F030FC204670BD3F
:1057C0002DE9F04707460C4690460026206848B36E
:1057D000204641684968416000F1080142688A42F8
:1057E00002D14168496841604168D1F80C9000BF1E
:1057F000204641684968416000F1080142688A42D8
:1058000002D14168496841604168CD6806EBC60035
:1058100007EB800143460122284600F087FD761CF5
:105820004D45E5D13046BDE8F0872DE9F3410D4601
:105830000098846C002754B900BF502080F3118871
:10584000BFF34F8FBFF36F8F00BF00BFFEE7A06BAA
:10585000E16B884201D2012000E0002050B900BF76
:10586000502080F31188BFF34F8FBFF36F8F00BFBD
:1058700000BFFEE7A06BE16B88421BD294F9456044
:105880002A4669462046FFF7CCFD0746701C60B9E2
:10589000606A08B9012000E0002050B904F124003A
:1058A00001F046FC28B1012703E0701C40B284F8E7
:1058B000450000BF3846BDE8FC810000F8B505464C
:1058C0000F4616480068C068C468201D00F0DAFA68
:1058D000E06901281DD1A06941192B463A462046AE
:1058E000FFF726FFA8B1002003462A460146009094
:1058F000204601F015FD064656B900BF502080F342
:105900001188BFF34F8FBFF36F8F00BF00BFFEE75B
:1059100000BF2046616A8847F8BD00006802002089
:1059200070B586B06AE00398002867DB059C606963
:1059300008B9012000E0002010B9201D00F0A2FAF3
:1059400002A800F0BDF8054603980A2854D2DFE803
:1059500000F009050731334F0608323400BF00BF9D
:1059600000BF00BF0498A269811803462A4620465A
:10597000FFF7DEFEE8B12046616A8847E06901284A
:1059800017D1002000900498A169421800231946FD
:10599000204601F0C5FC064656B900BF502080F3F2
:1059A0001188BFF34F8FBFF36F8F00BF00BFFEE7BB
:1059B00000BF22E000BF20E000BF0498A061A06902
:1059C00008B1012000E0002050B900BF502080F352
:1059D0001188BFF34F8FBFF36F8F00BF00BFFEE78B
:1059E000A06941192B462A462046FFF7A1FE04E094
:1059F000204600F031FB00E000BF00BF00231A4644
:105A000003A90448006800F069FF00288BD106B0A4
:105A100070BD000070020020F8B505460C4600F08D
:105A20002DFE684600F04CF80646009820BB44B9AD
:105A3000B54206D801F0C8FB31462846FFF73EFFC5
:105A40001CE03CB10E480068006808B9012000E085
:105A500000200446A91B22460A48006800F098FB73
:105A600001F0B2FB50B94FF0805007490860BFF316
:105A70004F8FBFF36F8F01E001F0A6FBF8BD000070
:105A80006C0200207002002004ED00E00A49096861
:105A9000096809B9012100E0002121B14FF0FF316F
:105AA000064A116006E004490968C968C868034AE3
:105AB0004168116070470000300200205C02002045
:105AC00070B5044601F026FA05460748006885428D
:105AD00004D200F00BF80120206001E000202060DB
